{
  "contractName": "Evaluator",
  "abi": [
    {
      "inputs": [
        {
          "internalType": "contract ERC20TD",
          "name": "_TDERC20",
          "type": "address"
        }
      ],
      "stateMutability": "nonpayable",
      "type": "constructor"
    },
    {
      "anonymous": false,
      "inputs": [
        {
          "indexed": false,
          "internalType": "address",
          "name": "erc20Address",
          "type": "address"
        }
      ],
      "name": "constructedCorrectly",
      "type": "event"
    },
    {
      "anonymous": false,
      "inputs": [
        {
          "indexed": false,
          "internalType": "string",
          "name": "ticker",
          "type": "string"
        },
        {
          "indexed": false,
          "internalType": "uint256",
          "name": "supply",
          "type": "uint256"
        }
      ],
      "name": "newRandomTickerAndSupply",
      "type": "event"
    },
    {
      "stateMutability": "payable",
      "type": "fallback",
      "payable": true
    },
    {
      "inputs": [
        {
          "internalType": "address",
          "name": "",
          "type": "address"
        }
      ],
      "name": "assignedSupply",
      "outputs": [
        {
          "internalType": "uint256",
          "name": "",
          "type": "uint256"
        }
      ],
      "stateMutability": "view",
      "type": "function",
      "constant": true
    },
    {
      "inputs": [
        {
          "internalType": "address",
          "name": "",
          "type": "address"
        }
      ],
      "name": "assignedTicker",
      "outputs": [
        {
          "internalType": "string",
          "name": "",
          "type": "string"
        }
      ],
      "stateMutability": "view",
      "type": "function",
      "constant": true
    },
    {
      "inputs": [
        {
          "internalType": "address",
          "name": "",
          "type": "address"
        }
      ],
      "name": "ex8Tier1AmountBought",
      "outputs": [
        {
          "internalType": "uint256",
          "name": "",
          "type": "uint256"
        }
      ],
      "stateMutability": "view",
      "type": "function",
      "constant": true
    },
    {
      "inputs": [
        {
          "internalType": "address",
          "name": "",
          "type": "address"
        },
        {
          "internalType": "uint256",
          "name": "",
          "type": "uint256"
        }
      ],
      "name": "exerciceProgression",
      "outputs": [
        {
          "internalType": "bool",
          "name": "",
          "type": "bool"
        }
      ],
      "stateMutability": "view",
      "type": "function",
      "constant": true
    },
    {
      "inputs": [
        {
          "internalType": "address",
          "name": "",
          "type": "address"
        }
      ],
      "name": "hasBeenPaired",
      "outputs": [
        {
          "internalType": "bool",
          "name": "",
          "type": "bool"
        }
      ],
      "stateMutability": "view",
      "type": "function",
      "constant": true
    },
    {
      "inputs": [],
      "name": "nextValueStoreRank",
      "outputs": [
        {
          "internalType": "uint256",
          "name": "",
          "type": "uint256"
        }
      ],
      "stateMutability": "view",
      "type": "function",
      "constant": true
    },
    {
      "inputs": [
        {
          "internalType": "address",
          "name": "",
          "type": "address"
        }
      ],
      "name": "studentErc20",
      "outputs": [
        {
          "internalType": "contract IExerciceSolution",
          "name": "",
          "type": "address"
        }
      ],
      "stateMutability": "view",
      "type": "function",
      "constant": true
    },
    {
      "inputs": [
        {
          "internalType": "address",
          "name": "",
          "type": "address"
        }
      ],
      "name": "teachers",
      "outputs": [
        {
          "internalType": "bool",
          "name": "",
          "type": "bool"
        }
      ],
      "stateMutability": "view",
      "type": "function",
      "constant": true
    },
    {
      "stateMutability": "payable",
      "type": "receive",
      "payable": true
    },
    {
      "inputs": [],
      "name": "ex1_getTickerAndSupply",
      "outputs": [],
      "stateMutability": "nonpayable",
      "type": "function"
    },
    {
      "inputs": [],
      "name": "ex2_testErc20TickerAndSupply",
      "outputs": [],
      "stateMutability": "nonpayable",
      "type": "function"
    },
    {
      "inputs": [],
      "name": "ex3_testGetToken",
      "outputs": [],
      "stateMutability": "nonpayable",
      "type": "function"
    },
    {
      "inputs": [],
      "name": "ex4_testBuyToken",
      "outputs": [],
      "stateMutability": "nonpayable",
      "type": "function"
    },
    {
      "inputs": [],
      "name": "ex5_testDenyListing",
      "outputs": [],
      "stateMutability": "nonpayable",
      "type": "function"
    },
    {
      "inputs": [],
      "name": "ex6_testAllowListing",
      "outputs": [],
      "stateMutability": "nonpayable",
      "type": "function"
    },
    {
      "inputs": [],
      "name": "ex7_testDenyListing",
      "outputs": [],
      "stateMutability": "nonpayable",
      "type": "function"
    },
    {
      "inputs": [],
      "name": "ex8_testTier1Listing",
      "outputs": [],
      "stateMutability": "nonpayable",
      "type": "function"
    },
    {
      "inputs": [],
      "name": "ex9_testTier2Listing",
      "outputs": [],
      "stateMutability": "nonpayable",
      "type": "function"
    },
    {
      "inputs": [
        {
          "internalType": "contract IExerciceSolution",
          "name": "studentExercice",
          "type": "address"
        }
      ],
      "name": "submitExercice",
      "outputs": [],
      "stateMutability": "nonpayable",
      "type": "function"
    },
    {
      "inputs": [
        {
          "internalType": "bytes32",
          "name": "_bytes32",
          "type": "bytes32"
        }
      ],
      "name": "bytes32ToString",
      "outputs": [
        {
          "internalType": "string",
          "name": "",
          "type": "string"
        }
      ],
      "stateMutability": "pure",
      "type": "function",
      "constant": true
    },
    {
      "inputs": [
        {
          "internalType": "address",
          "name": "studentAddres",
          "type": "address"
        }
      ],
      "name": "readTicker",
      "outputs": [
        {
          "internalType": "string",
          "name": "",
          "type": "string"
        }
      ],
      "stateMutability": "view",
      "type": "function",
      "constant": true
    },
    {
      "inputs": [
        {
          "internalType": "address",
          "name": "studentAddres",
          "type": "address"
        }
      ],
      "name": "readSupply",
      "outputs": [
        {
          "internalType": "uint256",
          "name": "",
          "type": "uint256"
        }
      ],
      "stateMutability": "view",
      "type": "function",
      "constant": true
    },
    {
      "inputs": [
        {
          "internalType": "uint256[20]",
          "name": "_randomSupplies",
          "type": "uint256[20]"
        },
        {
          "internalType": "string[20]",
          "name": "_randomTickers",
          "type": "string[20]"
        }
      ],
      "name": "setRandomTickersAndSupply",
      "outputs": [],
      "stateMutability": "nonpayable",
      "type": "function"
    }
  ],
  "bytecode": "0x60806040523480156200001157600080fd5b5060405162004e3238038062004e328339818101604052620000379190810190620000f1565b80600160006101000a81548173ffffffffffffffffffffffffffffffffffffffff021916908373ffffffffffffffffffffffffffffffffffffffff1602179055507f2915b3b4e0613c6b63dca39a375dd8c9f1de68d9e208a0713b7624260e2d0812600160009054906101000a900473ffffffffffffffffffffffffffffffffffffffff16604051620000cb91906200012e565b60405180910390a150620001ad565b600081519050620000eb8162000193565b92915050565b6000602082840312156200010457600080fd5b60006200011484828501620000da565b91505092915050565b62000128816200014b565b82525050565b60006020820190506200014560008301846200011d565b92915050565b6000620001588262000173565b9050919050565b60006200016c826200014b565b9050919050565b600073ffffffffffffffffffffffffffffffffffffffff82169050919050565b6200019e816200015f565b8114620001aa57600080fd5b50565b614c7580620001bd6000396000f3fe6080604052600436106101385760003560e01c8063a6c611d9116100ab578063e22b5dcf1161006f578063e22b5dcf146103cd578063e22ebfd61461040a578063e8b4cb5614610447578063ec65b16e1461045e578063f0a47f7814610475578063f4fdbb88146104b25761013f565b8063a6c611d914610322578063afda5dc514610339578063b32b559f14610376578063ccd64d7d1461038d578063d1a2e76e146103a45761013f565b806339119dce116100fd57806339119dce146102125780633bc409561461023d5780637db60caf146102545780639201de551461029157806398f02097146102ce5780639f91f516146102e55761013f565b8062a3491a146101415780630af78edc1461017e57806316f4b99f146101955780632236d353146101ac5780632e64c500146101d55761013f565b3661013f57005b005b34801561014d57600080fd5b506101686004803603610163919081019061412d565b6104ef565b60405161017591906147e6565b60405180910390f35b34801561018a57600080fd5b5061019361059f565b005b3480156101a157600080fd5b506101aa610931565b005b3480156101b857600080fd5b506101d360048036036101ce919081019061423a565b610dfc565b005b3480156101e157600080fd5b506101fc60048036036101f79190810190614156565b6111a8565b60405161020991906147b0565b60405180910390f35b34801561021e57600080fd5b506102276111d7565b604051610234919061495a565b60405180910390f35b34801561024957600080fd5b506102526111dd565b005b34801561026057600080fd5b5061027b6004803603610276919081019061412d565b611708565b604051610288919061495a565b60405180910390f35b34801561029d57600080fd5b506102b860048036036102b39190810190614211565b611720565b6040516102c59190614808565b60405180910390f35b3480156102da57600080fd5b506102e361187d565b005b3480156102f157600080fd5b5061030c6004803603610307919081019061412d565b611ace565b604051610319919061495a565b60405180910390f35b34801561032e57600080fd5b50610337611b17565b005b34801561034557600080fd5b50610360600480360361035b919081019061412d565b612033565b60405161036d919061495a565b60405180910390f35b34801561038257600080fd5b5061038b61204b565b005b34801561039957600080fd5b506103a26121b4565b005b3480156103b057600080fd5b506103cb60048036036103c69190810190614192565b61268f565b005b3480156103d957600080fd5b506103f460048036036103ef919081019061412d565b6127e4565b6040516104019190614808565b60405180910390f35b34801561041657600080fd5b50610431600480360361042c919081019061412d565b6128c5565b60405161043e91906147cb565b60405180910390f35b34801561045357600080fd5b5061045c6128f8565b005b34801561046a57600080fd5b50610473613207565b005b34801561048157600080fd5b5061049c6004803603610497919081019061412d565b613626565b6040516104a991906147b0565b60405180910390f35b3480156104be57600080fd5b506104d960048036036104d4919081019061412d565b613646565b6040516104e691906147b0565b60405180910390f35b602b6020528060005260406000206000915090508054600181600116156101000203166002900480601f0160208091040260200160405190810160405280929190818152602001828054600181600116156101000203166002900480156105975780601f1061056c57610100808354040283529160200191610597565b820191906000526020600020905b81548152906001019060200180831161057a57829003601f168201915b505050505081565b600073ffffffffffffffffffffffffffffffffffffffff16602e60003373ffffffffffffffffffffffffffffffffffffffff1673ffffffffffffffffffffffffffffffffffffffff16815260200190815260200160002060009054906101000a900473ffffffffffffffffffffffffffffffffffffffff1673ffffffffffffffffffffffffffffffffffffffff16141561066e576040517f08c379a0000000000000000000000000000000000000000000000000000000008152600401610665906148fa565b60405180910390fd5b602d60003373ffffffffffffffffffffffffffffffffffffffff1673ffffffffffffffffffffffffffffffffffffffff16815260200190815260200160002060006005815260200190815260200160002060009054906101000a900460ff166106d657600080fd5b602e60003373ffffffffffffffffffffffffffffffffffffffff1673ffffffffffffffffffffffffffffffffffffffff16815260200190815260200160002060009054906101000a900473ffffffffffffffffffffffffffffffffffffffff1673ffffffffffffffffffffffffffffffffffffffff1663d48a87f1306040518263ffffffff1660e01b815260040161076e91906146f1565b602060405180830381600087803b15801561078857600080fd5b505af115801561079c573d6000803e3d6000fd5b505050506040513d601f19601f820116820180604052506107c091908101906141e8565b6107c957600080fd5b6107d16111dd565b602d60003373ffffffffffffffffffffffffffffffffffffffff1673ffffffffffffffffffffffffffffffffffffffff16815260200190815260200160002060006006815260200190815260200160002060009054906101000a900460ff1661092f576001602d60003373ffffffffffffffffffffffffffffffffffffffff1673ffffffffffffffffffffffffffffffffffffffff16815260200190815260200160002060006006815260200190815260200160002060006101000a81548160ff021916908315150217905550600160009054906101000a900473ffffffffffffffffffffffffffffffffffffffff1673ffffffffffffffffffffffffffffffffffffffff1663158a49883360026040518363ffffffff1660e01b81526004016108fc929190614787565b600060405180830381600087803b15801561091657600080fd5b505af115801561092a573d6000803e3d6000fd5b505050505b565b600073ffffffffffffffffffffffffffffffffffffffff16602e60003373ffffffffffffffffffffffffffffffffffffffff1673ffffffffffffffffffffffffffffffffffffffff16815260200190815260200160002060009054906101000a900473ffffffffffffffffffffffffffffffffffffffff1673ffffffffffffffffffffffffffffffffffffffff161415610a00576040517f08c379a00000000000000000000000000000000000000000000000000000000081526004016109f7906148fa565b60405180910390fd5b602d60003373ffffffffffffffffffffffffffffffffffffffff1673ffffffffffffffffffffffffffffffffffffffff16815260200190815260200160002060006007815260200190815260200160002060009054906101000a900460ff16610a6857600080fd5b602e60003373ffffffffffffffffffffffffffffffffffffffff1673ffffffffffffffffffffffffffffffffffffffff16815260200190815260200160002060009054906101000a900473ffffffffffffffffffffffffffffffffffffffff1673ffffffffffffffffffffffffffffffffffffffff1663d48a87f1306040518263ffffffff1660e01b8152600401610b0091906146f1565b602060405180830381600087803b158015610b1a57600080fd5b505af1158015610b2e573d6000803e3d6000fd5b505050506040513d601f19601f82011682018060405250610b5291908101906141e8565b610b5b57600080fd5b6001602e60003373ffffffffffffffffffffffffffffffffffffffff1673ffffffffffffffffffffffffffffffffffffffff16815260200190815260200160002060009054906101000a900473ffffffffffffffffffffffffffffffffffffffff1673ffffffffffffffffffffffffffffffffffffffff16638dd3fda9306040518263ffffffff1660e01b8152600401610bf591906146f1565b602060405180830381600087803b158015610c0f57600080fd5b505af1158015610c23573d6000803e3d6000fd5b505050506040513d601f19601f82011682018060405250610c4791908101906142a4565b14610c5157600080fd5b610c59613666565b602f60003373ffffffffffffffffffffffffffffffffffffffff1673ffffffffffffffffffffffffffffffffffffffff16815260200190815260200160002081905550602d60003373ffffffffffffffffffffffffffffffffffffffff1673ffffffffffffffffffffffffffffffffffffffff16815260200190815260200160002060006008815260200190815260200160002060009054906101000a900460ff16610dfa576001602d60003373ffffffffffffffffffffffffffffffffffffffff1673ffffffffffffffffffffffffffffffffffffffff16815260200190815260200160002060006008815260200190815260200160002060006101000a81548160ff021916908315150217905550600160009054906101000a900473ffffffffffffffffffffffffffffffffffffffff1673ffffffffffffffffffffffffffffffffffffffff1663158a49883360026040518363ffffffff1660e01b8152600401610dc7929190614787565b600060405180830381600087803b158015610de157600080fd5b505af1158015610df5573d6000803e3d6000fd5b505050505b565b603060008273ffffffffffffffffffffffffffffffffffffffff1673ffffffffffffffffffffffffffffffffffffffff16815260200190815260200160002060009054906101000a900460ff1615610e5357600080fd5b80602e60003373ffffffffffffffffffffffffffffffffffffffff1673ffffffffffffffffffffffffffffffffffffffff16815260200190815260200160002060006101000a81548173ffffffffffffffffffffffffffffffffffffffff021916908373ffffffffffffffffffffffffffffffffffffffff1602179055506001603060008373ffffffffffffffffffffffffffffffffffffffff1673ffffffffffffffffffffffffffffffffffffffff16815260200190815260200160002060006101000a81548160ff021916908315150217905550602d60003373ffffffffffffffffffffffffffffffffffffffff1673ffffffffffffffffffffffffffffffffffffffff168152602001908152602001600020600080815260200190815260200160002060009054906101000a900460ff166111a5576001602d60003373ffffffffffffffffffffffffffffffffffffffff1673ffffffffffffffffffffffffffffffffffffffff168152602001908152602001600020600080815260200190815260200160002060006101000a81548160ff021916908315150217905550600160009054906101000a900473ffffffffffffffffffffffffffffffffffffffff1673ffffffffffffffffffffffffffffffffffffffff1663158a49883360026040518363ffffffff1660e01b8152600401611052929190614787565b600060405180830381600087803b15801561106c57600080fd5b505af1158015611080573d6000803e3d6000fd5b50505050600160009054906101000a900473ffffffffffffffffffffffffffffffffffffffff1673ffffffffffffffffffffffffffffffffffffffff1663158a49883360026040518363ffffffff1660e01b81526004016110e2929190614787565b600060405180830381600087803b1580156110fc57600080fd5b505af1158015611110573d6000803e3d6000fd5b50505050600160009054906101000a900473ffffffffffffffffffffffffffffffffffffffff1673ffffffffffffffffffffffffffffffffffffffff1663158a49883360016040518363ffffffff1660e01b815260040161117292919061475e565b600060405180830381600087803b15801561118c57600080fd5b505af11580156111a0573d6000803e3d6000fd5b505050505b50565b602d6020528160005260406000206020528060005260406000206000915091509054906101000a900460ff1681565b602a5481565b600073ffffffffffffffffffffffffffffffffffffffff16602e60003373ffffffffffffffffffffffffffffffffffffffff1673ffffffffffffffffffffffffffffffffffffffff16815260200190815260200160002060009054906101000a900473ffffffffffffffffffffffffffffffffffffffff1673ffffffffffffffffffffffffffffffffffffffff1614156112ac576040517f08c379a00000000000000000000000000000000000000000000000000000000081526004016112a3906148fa565b60405180910390fd5b6000602e60003373ffffffffffffffffffffffffffffffffffffffff1673ffffffffffffffffffffffffffffffffffffffff16815260200190815260200160002060009054906101000a900473ffffffffffffffffffffffffffffffffffffffff1673ffffffffffffffffffffffffffffffffffffffff166370a08231306040518263ffffffff1660e01b815260040161134691906146f1565b60206040518083038186803b15801561135e57600080fd5b505afa158015611372573d6000803e3d6000fd5b505050506040513d601f19601f8201168201806040525061139691908101906142a4565b9050602e60003373ffffffffffffffffffffffffffffffffffffffff1673ffffffffffffffffffffffffffffffffffffffff16815260200190815260200160002060009054906101000a900473ffffffffffffffffffffffffffffffffffffffff1673ffffffffffffffffffffffffffffffffffffffff166321df0da76040518163ffffffff1660e01b8152600401602060405180830381600087803b15801561143f57600080fd5b505af1158015611453573d6000803e3d6000fd5b505050506040513d601f19601f8201168201806040525061147791908101906141e8565b506000602e60003373ffffffffffffffffffffffffffffffffffffffff1673ffffffffffffffffffffffffffffffffffffffff16815260200190815260200160002060009054906101000a900473ffffffffffffffffffffffffffffffffffffffff1673ffffffffffffffffffffffffffffffffffffffff166370a08231306040518263ffffffff1660e01b815260040161151291906146f1565b60206040518083038186803b15801561152a57600080fd5b505afa15801561153e573d6000803e3d6000fd5b505050506040513d601f19601f8201168201806040525061156291908101906142a4565b90508082106115a6576040517f08c379a000000000000000000000000000000000000000000000000000000000815260040161159d9061489a565b60405180910390fd5b602d60003373ffffffffffffffffffffffffffffffffffffffff1673ffffffffffffffffffffffffffffffffffffffff16815260200190815260200160002060006003815260200190815260200160002060009054906101000a900460ff16611704576001602d60003373ffffffffffffffffffffffffffffffffffffffff1673ffffffffffffffffffffffffffffffffffffffff16815260200190815260200160002060006003815260200190815260200160002060006101000a81548160ff021916908315150217905550600160009054906101000a900473ffffffffffffffffffffffffffffffffffffffff1673ffffffffffffffffffffffffffffffffffffffff1663158a49883360026040518363ffffffff1660e01b81526004016116d1929190614787565b600060405180830381600087803b1580156116eb57600080fd5b505af11580156116ff573d6000803e3d6000fd5b505050505b5050565b602c6020528060005260406000206000915090505481565b606060008090505b60208160ff161080156117735750600060f81b838260ff166020811061174a57fe5b1a60f81b7effffffffffffffffffffffffffffffffffffffffffffffffffffffffffffff191614155b15611785578080600101915050611728565b60608160ff166040519080825280601f01601f1916602001820160405280156117bd5781602001600182028038833980820191505090505b509050600091505b60208260ff161080156118105750600060f81b848360ff16602081106117e757fe5b1a60f81b7effffffffffffffffffffffffffffffffffffffffffffffffffffffffffffff191614155b1561187357838260ff166020811061182457fe5b1a60f81b818360ff168151811061183757fe5b60200101907effffffffffffffffffffffffffffffffffffffffffffffffffffffffffffff1916908160001a90535081806001019250506117c5565b8092505050919050565b670de0b6b3a76400006002602a546014811061189557fe5b015402602c60003373ffffffffffffffffffffffffffffffffffffffff1673ffffffffffffffffffffffffffffffffffffffff168152602001908152602001600020819055506016602a54601481106118ea57fe5b01602b60003373ffffffffffffffffffffffffffffffffffffffff1673ffffffffffffffffffffffffffffffffffffffff1681526020019081526020016000209080546001816001161561010002031660029004611949929190613cfb565b506001602a600082825401925050819055506014602a541061196e576000602a819055505b602d60003373ffffffffffffffffffffffffffffffffffffffff1673ffffffffffffffffffffffffffffffffffffffff16815260200190815260200160002060006001815260200190815260200160002060009054906101000a900460ff16611acc576001602d60003373ffffffffffffffffffffffffffffffffffffffff1673ffffffffffffffffffffffffffffffffffffffff16815260200190815260200160002060006001815260200190815260200160002060006101000a81548160ff021916908315150217905550600160009054906101000a900473ffffffffffffffffffffffffffffffffffffffff1673ffffffffffffffffffffffffffffffffffffffff1663158a49883360016040518363ffffffff1660e01b8152600401611a9992919061475e565b600060405180830381600087803b158015611ab357600080fd5b505af1158015611ac7573d6000803e3d6000fd5b505050505b565b6000602c60008373ffffffffffffffffffffffffffffffffffffffff1673ffffffffffffffffffffffffffffffffffffffff168152602001908152602001600020549050919050565b600073ffffffffffffffffffffffffffffffffffffffff16602e60003373ffffffffffffffffffffffffffffffffffffffff1673ffffffffffffffffffffffffffffffffffffffff16815260200190815260200160002060009054906101000a900473ffffffffffffffffffffffffffffffffffffffff1673ffffffffffffffffffffffffffffffffffffffff161415611be6576040517f08c379a0000000000000000000000000000000000000000000000000000000008152600401611bdd906148fa565b60405180910390fd5b602e60003373ffffffffffffffffffffffffffffffffffffffff1673ffffffffffffffffffffffffffffffffffffffff16815260200190815260200160002060009054906101000a900473ffffffffffffffffffffffffffffffffffffffff1673ffffffffffffffffffffffffffffffffffffffff1663d48a87f1306040518263ffffffff1660e01b8152600401611c7e91906146f1565b602060405180830381600087803b158015611c9857600080fd5b505af1158015611cac573d6000803e3d6000fd5b505050506040513d601f19601f82011682018060405250611cd091908101906141e8565b15611cda57600080fd5b6000602e60003373ffffffffffffffffffffffffffffffffffffffff1673ffffffffffffffffffffffffffffffffffffffff16815260200190815260200160002060009054906101000a900473ffffffffffffffffffffffffffffffffffffffff1673ffffffffffffffffffffffffffffffffffffffff16638dd3fda9306040518263ffffffff1660e01b8152600401611d7491906146f1565b602060405180830381600087803b158015611d8e57600080fd5b505af1158015611da2573d6000803e3d6000fd5b505050506040513d601f19601f82011682018060405250611dc691908101906142a4565b14611dd057600080fd5b600060019050602e60003373ffffffffffffffffffffffffffffffffffffffff1673ffffffffffffffffffffffffffffffffffffffff16815260200190815260200160002060009054906101000a900473ffffffffffffffffffffffffffffffffffffffff1673ffffffffffffffffffffffffffffffffffffffff1663a4821719655af3107a40006040518263ffffffff1660e01b81526004016020604051808303818588803b158015611e8357600080fd5b505af193505050508015611eb557506040513d601f19601f82011682018060405250611eb291908101906141e8565b60015b611ec25760009050611ec7565b809150505b8015611ed257600080fd5b602d60003373ffffffffffffffffffffffffffffffffffffffff1673ffffffffffffffffffffffffffffffffffffffff16815260200190815260200160002060006007815260200190815260200160002060009054906101000a900460ff16612030576001602d60003373ffffffffffffffffffffffffffffffffffffffff1673ffffffffffffffffffffffffffffffffffffffff16815260200190815260200160002060006007815260200190815260200160002060006101000a81548160ff021916908315150217905550600160009054906101000a900473ffffffffffffffffffffffffffffffffffffffff1673ffffffffffffffffffffffffffffffffffffffff1663158a49883360016040518363ffffffff1660e01b8152600401611ffd92919061475e565b600060405180830381600087803b15801561201757600080fd5b505af115801561202b573d6000803e3d6000fd5b505050505b50565b602f6020528060005260406000206000915090505481565b612053613666565b50602d60003373ffffffffffffffffffffffffffffffffffffffff1673ffffffffffffffffffffffffffffffffffffffff16815260200190815260200160002060006004815260200190815260200160002060009054906101000a900460ff166121b2576001602d60003373ffffffffffffffffffffffffffffffffffffffff1673ffffffffffffffffffffffffffffffffffffffff16815260200190815260200160002060006004815260200190815260200160002060006101000a81548160ff021916908315150217905550600160009054906101000a900473ffffffffffffffffffffffffffffffffffffffff1673ffffffffffffffffffffffffffffffffffffffff1663158a49883360026040518363ffffffff1660e01b815260040161217f929190614787565b600060405180830381600087803b15801561219957600080fd5b505af11580156121ad573d6000803e3d6000fd5b505050505b565b600073ffffffffffffffffffffffffffffffffffffffff16602e60003373ffffffffffffffffffffffffffffffffffffffff1673ffffffffffffffffffffffffffffffffffffffff16815260200190815260200160002060009054906101000a900473ffffffffffffffffffffffffffffffffffffffff1673ffffffffffffffffffffffffffffffffffffffff161415612283576040517f08c379a000000000000000000000000000000000000000000000000000000000815260040161227a906148fa565b60405180910390fd5b602d60003373ffffffffffffffffffffffffffffffffffffffff1673ffffffffffffffffffffffffffffffffffffffff16815260200190815260200160002060006007815260200190815260200160002060009054906101000a900460ff166122eb57600080fd5b602e60003373ffffffffffffffffffffffffffffffffffffffff1673ffffffffffffffffffffffffffffffffffffffff16815260200190815260200160002060009054906101000a900473ffffffffffffffffffffffffffffffffffffffff1673ffffffffffffffffffffffffffffffffffffffff1663d48a87f1306040518263ffffffff1660e01b815260040161238391906146f1565b602060405180830381600087803b15801561239d57600080fd5b505af11580156123b1573d6000803e3d6000fd5b505050506040513d601f19601f820116820180604052506123d591908101906141e8565b6123de57600080fd5b6002602e60003373ffffffffffffffffffffffffffffffffffffffff1673ffffffffffffffffffffffffffffffffffffffff16815260200190815260200160002060009054906101000a900473ffffffffffffffffffffffffffffffffffffffff1673ffffffffffffffffffffffffffffffffffffffff16638dd3fda9306040518263ffffffff1660e01b815260040161247891906146f1565b602060405180830381600087803b15801561249257600080fd5b505af11580156124a6573d6000803e3d6000fd5b505050506040513d601f19601f820116820180604052506124ca91908101906142a4565b146124d457600080fd5b60006124de613666565b9050602f60003373ffffffffffffffffffffffffffffffffffffffff1673ffffffffffffffffffffffffffffffffffffffff16815260200190815260200160002054600202811461252e57600080fd5b602d60003373ffffffffffffffffffffffffffffffffffffffff1673ffffffffffffffffffffffffffffffffffffffff16815260200190815260200160002060006009815260200190815260200160002060009054906101000a900460ff1661268c576001602d60003373ffffffffffffffffffffffffffffffffffffffff1673ffffffffffffffffffffffffffffffffffffffff16815260200190815260200160002060006009815260200190815260200160002060006101000a81548160ff021916908315150217905550600160009054906101000a900473ffffffffffffffffffffffffffffffffffffffff1673ffffffffffffffffffffffffffffffffffffffff1663158a49883360026040518363ffffffff1660e01b8152600401612659929190614787565b600060405180830381600087803b15801561267357600080fd5b505af1158015612687573d6000803e3d6000fd5b505050505b50565b600160009054906101000a900473ffffffffffffffffffffffffffffffffffffffff1673ffffffffffffffffffffffffffffffffffffffff1663f0a47f78336040518263ffffffff1660e01b81526004016126ea91906146f1565b60206040518083038186803b15801561270257600080fd5b505afa158015612716573d6000803e3d6000fd5b505050506040513d601f19601f8201168201806040525061273a91908101906141e8565b61274357600080fd5b816002906014612754929190613d82565b50806016906014612766929190613dc2565b506000602a8190555060008090505b60148110156127df577fcc783cf5d663570e7c7576cec91f24975b35b957c8dd67766710be25c48cf602601682601481106127ac57fe5b01600283601481106127ba57fe5b01546040516127ca92919061482a565b60405180910390a18080600101915050612775565b505050565b6060602b60008373ffffffffffffffffffffffffffffffffffffffff1673ffffffffffffffffffffffffffffffffffffffff1681526020019081526020016000208054600181600116156101000203166002900480601f0160208091040260200160405190810160405280929190818152602001828054600181600116156101000203166002900480156128b95780601f1061288e576101008083540402835291602001916128b9565b820191906000526020600020905b81548152906001019060200180831161289c57829003601f168201915b50505050509050919050565b602e6020528060005260406000206000915054906101000a900473ffffffffffffffffffffffffffffffffffffffff1681565b602d60003373ffffffffffffffffffffffffffffffffffffffff1673ffffffffffffffffffffffffffffffffffffffff16815260200190815260200160002060006001815260200190815260200160002060009054906101000a900460ff1661296057600080fd5b602d60003373ffffffffffffffffffffffffffffffffffffffff1673ffffffffffffffffffffffffffffffffffffffff168152602001908152602001600020600080815260200190815260200160002060009054906101000a900460ff166129c757600080fd5b612b89602b60003373ffffffffffffffffffffffffffffffffffffffff1673ffffffffffffffffffffffffffffffffffffffff1681526020019081526020016000208054600181600116156101000203166002900480601f016020809104026020016040519081016040528092919081815260200182805460018160011615610100020316600290048015612a9d5780601f10612a7257610100808354040283529160200191612a9d565b820191906000526020600020905b815481529060010190602001808311612a8057829003601f168201915b5050505050602e60003373ffffffffffffffffffffffffffffffffffffffff1673ffffffffffffffffffffffffffffffffffffffff16815260200190815260200160002060009054906101000a900473ffffffffffffffffffffffffffffffffffffffff1673ffffffffffffffffffffffffffffffffffffffff166395d89b416040518163ffffffff1660e01b815260040160006040518083038186803b158015612b4757600080fd5b505afa158015612b5b573d6000803e3d6000fd5b505050506040513d6000823e3d601f19601f82011682018060405250612b849190810190614263565b613ca2565b612bc8576040517f08c379a0000000000000000000000000000000000000000000000000000000008152600401612bbf9061487a565b60405180910390fd5b602e60003373ffffffffffffffffffffffffffffffffffffffff1673ffffffffffffffffffffffffffffffffffffffff16815260200190815260200160002060009054906101000a900473ffffffffffffffffffffffffffffffffffffffff1673ffffffffffffffffffffffffffffffffffffffff166318160ddd6040518163ffffffff1660e01b815260040160206040518083038186803b158015612c6d57600080fd5b505afa158015612c81573d6000803e3d6000fd5b505050506040513d601f19601f82011682018060405250612ca591908101906142a4565b602c60003373ffffffffffffffffffffffffffffffffffffffff1673ffffffffffffffffffffffffffffffffffffffff1681526020019081526020016000205414612d25576040517f08c379a0000000000000000000000000000000000000000000000000000000008152600401612d1c9061491a565b60405180910390fd5b6000602e60003373ffffffffffffffffffffffffffffffffffffffff1673ffffffffffffffffffffffffffffffffffffffff16815260200190815260200160002060009054906101000a900473ffffffffffffffffffffffffffffffffffffffff1673ffffffffffffffffffffffffffffffffffffffff1663dd62ed3e30336040518363ffffffff1660e01b8152600401612dc192919061470c565b60206040518083038186803b158015612dd957600080fd5b505afa158015612ded573d6000803e3d6000fd5b505050506040513d601f19601f82011682018060405250612e1191908101906142a4565b14612e51576040517f08c379a0000000000000000000000000000000000000000000000000000000008152600401612e489061493a565b60405180910390fd5b6000602e60003373ffffffffffffffffffffffffffffffffffffffff1673ffffffffffffffffffffffffffffffffffffffff16815260200190815260200160002060009054906101000a900473ffffffffffffffffffffffffffffffffffffffff1673ffffffffffffffffffffffffffffffffffffffff166370a08231306040518263ffffffff1660e01b8152600401612eeb91906146f1565b60206040518083038186803b158015612f0357600080fd5b505afa158015612f17573d6000803e3d6000fd5b505050506040513d601f19601f82011682018060405250612f3b91908101906142a4565b14612f7b576040517f08c379a0000000000000000000000000000000000000000000000000000000008152600401612f72906148ba565b60405180910390fd5b602e60003373ffffffffffffffffffffffffffffffffffffffff1673ffffffffffffffffffffffffffffffffffffffff16815260200190815260200160002060009054906101000a900473ffffffffffffffffffffffffffffffffffffffff1673ffffffffffffffffffffffffffffffffffffffff1663095ea7b333600a6040518363ffffffff1660e01b8152600401613016929190614735565b602060405180830381600087803b15801561303057600080fd5b505af1158015613044573d6000803e3d6000fd5b505050506040513d601f19601f8201168201806040525061306891908101906141e8565b6130a7576040517f08c379a000000000000000000000000000000000000000000000000000000000815260040161309e9061485a565b60405180910390fd5b602d60003373ffffffffffffffffffffffffffffffffffffffff1673ffffffffffffffffffffffffffffffffffffffff16815260200190815260200160002060006002815260200190815260200160002060009054906101000a900460ff16613205576001602d60003373ffffffffffffffffffffffffffffffffffffffff1673ffffffffffffffffffffffffffffffffffffffff16815260200190815260200160002060006002815260200190815260200160002060006101000a81548160ff021916908315150217905550600160009054906101000a900473ffffffffffffffffffffffffffffffffffffffff1673ffffffffffffffffffffffffffffffffffffffff1663158a49883360026040518363ffffffff1660e01b81526004016131d2929190614787565b600060405180830381600087803b1580156131ec57600080fd5b505af1158015613200573d6000803e3d6000fd5b505050505b565b600073ffffffffffffffffffffffffffffffffffffffff16602e60003373ffffffffffffffffffffffffffffffffffffffff1673ffffffffffffffffffffffffffffffffffffffff16815260200190815260200160002060009054906101000a900473ffffffffffffffffffffffffffffffffffffffff1673ffffffffffffffffffffffffffffffffffffffff1614156132d6576040517f08c379a00000000000000000000000000000000000000000000000000000000081526004016132cd906148fa565b60405180910390fd5b602e60003373ffffffffffffffffffffffffffffffffffffffff1673ffffffffffffffffffffffffffffffffffffffff16815260200190815260200160002060009054906101000a900473ffffffffffffffffffffffffffffffffffffffff1673ffffffffffffffffffffffffffffffffffffffff1663d48a87f1306040518263ffffffff1660e01b815260040161336e91906146f1565b602060405180830381600087803b15801561338857600080fd5b505af115801561339c573d6000803e3d6000fd5b505050506040513d601f19601f820116820180604052506133c091908101906141e8565b156133ca57600080fd5b600060019050602e60003373ffffffffffffffffffffffffffffffffffffffff1673ffffffffffffffffffffffffffffffffffffffff16815260200190815260200160002060009054906101000a900473ffffffffffffffffffffffffffffffffffffffff1673ffffffffffffffffffffffffffffffffffffffff166321df0da76040518163ffffffff1660e01b8152600401602060405180830381600087803b15801561347757600080fd5b505af19250505080156134a857506040513d601f19601f820116820180604052506134a591908101906141e8565b60015b6134b557600090506134ba565b809150505b80156134c557600080fd5b602d60003373ffffffffffffffffffffffffffffffffffffffff1673ffffffffffffffffffffffffffffffffffffffff16815260200190815260200160002060006005815260200190815260200160002060009054906101000a900460ff16613623576001602d60003373ffffffffffffffffffffffffffffffffffffffff1673ffffffffffffffffffffffffffffffffffffffff16815260200190815260200160002060006005815260200190815260200160002060006101000a81548160ff021916908315150217905550600160009054906101000a900473ffffffffffffffffffffffffffffffffffffffff1673ffffffffffffffffffffffffffffffffffffffff1663158a49883360016040518363ffffffff1660e01b81526004016135f092919061475e565b600060405180830381600087803b15801561360a57600080fd5b505af115801561361e573d6000803e3d6000fd5b505050505b50565b60006020528060005260406000206000915054906101000a900460ff1681565b60306020528060005260406000206000915054906101000a900460ff1681565b60008073ffffffffffffffffffffffffffffffffffffffff16602e60003373ffffffffffffffffffffffffffffffffffffffff1673ffffffffffffffffffffffffffffffffffffffff16815260200190815260200160002060009054906101000a900473ffffffffffffffffffffffffffffffffffffffff1673ffffffffffffffffffffffffffffffffffffffff161415613736576040517f08c379a000000000000000000000000000000000000000000000000000000000815260040161372d906148fa565b60405180910390fd5b6000602e60003373ffffffffffffffffffffffffffffffffffffffff1673ffffffffffffffffffffffffffffffffffffffff16815260200190815260200160002060009054906101000a900473ffffffffffffffffffffffffffffffffffffffff1673ffffffffffffffffffffffffffffffffffffffff166370a08231306040518263ffffffff1660e01b81526004016137d091906146f1565b60206040518083038186803b1580156137e857600080fd5b505afa1580156137fc573d6000803e3d6000fd5b505050506040513d601f19601f8201168201806040525061382091908101906142a4565b9050602e60003373ffffffffffffffffffffffffffffffffffffffff1673ffffffffffffffffffffffffffffffffffffffff16815260200190815260200160002060009054906101000a900473ffffffffffffffffffffffffffffffffffffffff1673ffffffffffffffffffffffffffffffffffffffff1663a4821719655af3107a40006040518263ffffffff1660e01b81526004016020604051808303818588803b1580156138cf57600080fd5b505af11580156138e3573d6000803e3d6000fd5b50505050506040513d601f19601f8201168201806040525061390891908101906141e8565b506000602e60003373ffffffffffffffffffffffffffffffffffffffff1673ffffffffffffffffffffffffffffffffffffffff16815260200190815260200160002060009054906101000a900473ffffffffffffffffffffffffffffffffffffffff1673ffffffffffffffffffffffffffffffffffffffff166370a08231306040518263ffffffff1660e01b81526004016139a391906146f1565b60206040518083038186803b1580156139bb57600080fd5b505afa1580156139cf573d6000803e3d6000fd5b505050506040513d601f19601f820116820180604052506139f391908101906142a4565b9050808210613a37576040517f08c379a0000000000000000000000000000000000000000000000000000000008152600401613a2e9061489a565b60405180910390fd5b8181039250602e60003373ffffffffffffffffffffffffffffffffffffffff1673ffffffffffffffffffffffffffffffffffffffff16815260200190815260200160002060009054906101000a900473ffffffffffffffffffffffffffffffffffffffff1673ffffffffffffffffffffffffffffffffffffffff1663a4821719660110d9316ec0006040518263ffffffff1660e01b81526004016020604051808303818588803b158015613aea57600080fd5b505af1158015613afe573d6000803e3d6000fd5b50505050506040513d601f19601f82011682018060405250613b2391908101906141e8565b506000602e60003373ffffffffffffffffffffffffffffffffffffffff1673ffffffffffffffffffffffffffffffffffffffff16815260200190815260200160002060009054906101000a900473ffffffffffffffffffffffffffffffffffffffff1673ffffffffffffffffffffffffffffffffffffffff166370a08231306040518263ffffffff1660e01b8152600401613bbe91906146f1565b60206040518083038186803b158015613bd657600080fd5b505afa158015613bea573d6000803e3d6000fd5b505050506040513d601f19601f82011682018060405250613c0e91908101906142a4565b9050808210613c52576040517f08c379a0000000000000000000000000000000000000000000000000000000008152600401613c499061489a565b60405180910390fd5b60008282039050848111613c9b576040517f08c379a0000000000000000000000000000000000000000000000000000000008152600401613c92906148da565b60405180910390fd5b5050505090565b600081604051602001613cb591906146da565b6040516020818303038152906040528051906020012083604051602001613cdc91906146da565b6040516020818303038152906040528051906020012014905092915050565b828054600181600116156101000203166002900490600052602060002090601f016020900481019282601f10613d345780548555613d71565b82800160010185558215613d7157600052602060002091601f016020900482015b82811115613d70578254825591600101919060010190613d55565b5b509050613d7e9190613e15565b5090565b8260148101928215613db1579160200282015b82811115613db0578251825591602001919060010190613d95565b5b509050613dbe9190613e15565b5090565b8260148101928215613e04579160200282015b82811115613e03578251829080519060200190613df3929190613e3a565b5091602001919060010190613dd5565b5b509050613e119190613eba565b5090565b613e3791905b80821115613e33576000816000905550600101613e1b565b5090565b90565b828054600181600116156101000203166002900490600052602060002090601f016020900481019282601f10613e7b57805160ff1916838001178555613ea9565b82800160010185558215613ea9579182015b82811115613ea8578251825591602001919060010190613e8d565b5b509050613eb69190613e15565b5090565b613ee391905b80821115613edf5760008181613ed69190613ee6565b50600101613ec0565b5090565b90565b50805460018160011615610100020316600290046000825580601f10613f0c5750613f2b565b601f016020900490600052602060002090810190613f2a9190613e15565b5b50565b600081359050613f3d81614bcc565b92915050565b600082601f830112613f5457600080fd5b6014613f67613f62826149a2565b614975565b9150818360005b83811015613f9e5781358601613f84888261405b565b845260208401935060208301925050600181019050613f6e565b5050505092915050565b600082601f830112613fb957600080fd5b6014613fcc613fc7826149c4565b614975565b91508183856020840282011115613fe257600080fd5b60005b838110156140125781613ff88882614103565b845260208401935060208301925050600181019050613fe5565b5050505092915050565b60008151905061402b81614be3565b92915050565b60008135905061404081614bfa565b92915050565b60008135905061405581614c11565b92915050565b600082601f83011261406c57600080fd5b813561407f61407a826149e6565b614975565b9150808252602083016020830185838301111561409b57600080fd5b6140a6838284614b79565b50505092915050565b600082601f8301126140c057600080fd5b81516140d36140ce82614a12565b614975565b915080825260208301602083018583830111156140ef57600080fd5b6140fa838284614b88565b50505092915050565b60008135905061411281614c28565b92915050565b60008151905061412781614c28565b92915050565b60006020828403121561413f57600080fd5b600061414d84828501613f2e565b91505092915050565b6000806040838503121561416957600080fd5b600061417785828601613f2e565b925050602061418885828601614103565b9150509250929050565b6000806102a083850312156141a657600080fd5b60006141b485828601613fa8565b92505061028083013567ffffffffffffffff8111156141d257600080fd5b6141de85828601613f43565b9150509250929050565b6000602082840312156141fa57600080fd5b60006142088482850161401c565b91505092915050565b60006020828403121561422357600080fd5b600061423184828501614031565b91505092915050565b60006020828403121561424c57600080fd5b600061425a84828501614046565b91505092915050565b60006020828403121561427557600080fd5b600082015167ffffffffffffffff81111561428f57600080fd5b61429b848285016140af565b91505092915050565b6000602082840312156142b657600080fd5b60006142c484828501614118565b91505092915050565b6142d681614ae9565b82525050565b6142e581614a97565b82525050565b6142f481614afb565b82525050565b61430381614b1f565b82525050565b61431281614b31565b82525050565b61432181614b43565b82525050565b600061433282614a5e565b61433c8185614a69565b935061434c818560208601614b88565b61435581614bbb565b840191505092915050565b600061436b82614a5e565b6143758185614a7a565b9350614385818560208601614b88565b80840191505092915050565b600061439c82614a53565b6143a68185614a69565b93506143b6818560208601614b88565b6143bf81614bbb565b840191505092915050565b6000815460018116600081146143e7576001811461440d57614451565b607f60028304166143f88187614a69565b955060ff198316865260208601935050614451565b6002820461441b8187614a69565b955061442685614a3e565b60005b8281101561444857815481890152600182019150602081019050614429565b80880195505050505b505092915050565b6000614466601783614a69565b91507f417070726f7665206e6f7420696d706c656d656e7465640000000000000000006000830152602082019050919050565b60006144a6601083614a69565b91507f496e636f7272656374207469636b6572000000000000000000000000000000006000830152602082019050919050565b60006144e6601e83614a69565b91507f546f6b656e2062616c616e636520646964206e6f7420696e63726561736500006000830152602082019050919050565b6000614526602c83614a69565b91507f42616c616e63654f66206e6f7420696d706c656d656e746564206f7220696e6360008301527f6f72726563746c792073657400000000000000000000000000000000000000006020830152604082019050919050565b600061458c602283614a69565b91507f5365636f6e642062757920616d6f756e74206c6f776572207468616e2066697260008301527f73740000000000000000000000000000000000000000000000000000000000006020830152604082019050919050565b60006145f2601c83614a69565b91507f53747564656e74204552433230206e6f742072656769737465726564000000006000830152602082019050919050565b6000614632601083614a69565b91507f496e636f727265637420737570706c79000000000000000000000000000000006000830152602082019050919050565b6000614672602c83614a69565b91507f416c6c6f77616e6365206e6f7420696d706c656d656e746564206f7220696e6360008301527f6f72726563746c792073657400000000000000000000000000000000000000006020830152604082019050919050565b6146d481614adf565b82525050565b60006146e68284614360565b915081905092915050565b600060208201905061470660008301846142cd565b92915050565b600060408201905061472160008301856142cd565b61472e60208301846142cd565b9392505050565b600060408201905061474a60008301856142cd565b61475760208301846142fa565b9392505050565b600060408201905061477360008301856142cd565b6147806020830184614309565b9392505050565b600060408201905061479c60008301856142cd565b6147a96020830184614318565b9392505050565b60006020820190506147c560008301846142dc565b92915050565b60006020820190506147e060008301846142eb565b92915050565b600060208201905081810360008301526148008184614391565b905092915050565b600060208201905081810360008301526148228184614327565b905092915050565b6000604082019050818103600083015261484481856143ca565b905061485360208301846146cb565b9392505050565b6000602082019050818103600083015261487381614459565b9050919050565b6000602082019050818103600083015261489381614499565b9050919050565b600060208201905081810360008301526148b3816144d9565b9050919050565b600060208201905081810360008301526148d381614519565b9050919050565b600060208201905081810360008301526148f38161457f565b9050919050565b60006020820190508181036000830152614913816145e5565b9050919050565b6000602082019050818103600083015261493381614625565b9050919050565b6000602082019050818103600083015261495381614665565b9050919050565b600060208201905061496f60008301846146cb565b92915050565b6000604051905081810181811067ffffffffffffffff8211171561499857600080fd5b8060405250919050565b600067ffffffffffffffff8211156149b957600080fd5b602082029050919050565b600067ffffffffffffffff8211156149db57600080fd5b602082029050919050565b600067ffffffffffffffff8211156149fd57600080fd5b601f19601f8301169050602081019050919050565b600067ffffffffffffffff821115614a2957600080fd5b601f19601f8301169050602081019050919050565b60008190508160005260206000209050919050565b600081519050919050565b600081519050919050565b600082825260208201905092915050565b600081905092915050565b6000614a9082614abf565b9050919050565b60008115159050919050565b6000819050919050565b6000614ab882614a85565b9050919050565b600073ffffffffffffffffffffffffffffffffffffffff82169050919050565b6000819050919050565b6000614af482614b55565b9050919050565b6000614b0682614b0d565b9050919050565b6000614b1882614abf565b9050919050565b6000614b2a82614adf565b9050919050565b6000614b3c82614adf565b9050919050565b6000614b4e82614adf565b9050919050565b6000614b6082614b67565b9050919050565b6000614b7282614abf565b9050919050565b82818337600083830152505050565b60005b83811015614ba6578082015181840152602081019050614b8b565b83811115614bb5576000848401525b50505050565b6000601f19601f8301169050919050565b614bd581614a85565b8114614be057600080fd5b50565b614bec81614a97565b8114614bf757600080fd5b50565b614c0381614aa3565b8114614c0e57600080fd5b50565b614c1a81614aad565b8114614c2557600080fd5b50565b614c3181614adf565b8114614c3c57600080fd5b5056fea2646970667358221220a4379f215012a6c7691d7a26b936afcb1efa81b6e6ac608f2e653bdb344e177b64736f6c63430006020033",
  "source": "pragma solidity >=0.6.0;\npragma experimental ABIEncoderV2;\n\nimport \"./ERC20TD.sol\";\nimport \"./IExerciceSolution.sol\";\n\ncontract Evaluator \n{\n\n\tmapping(address => bool) public teachers;\n\tERC20TD TDERC20;\n\n\tuint256[20] private randomSupplies;\n\tstring[20] private randomTickers;\n \tuint public nextValueStoreRank;\n\n \tmapping(address => string) public assignedTicker;\n \tmapping(address => uint256) public assignedSupply;\n \tmapping(address => mapping(uint256 => bool)) public exerciceProgression;\n \tmapping(address => IExerciceSolution) public studentErc20;\n \tmapping(address => uint256) public ex8Tier1AmountBought;\n \tmapping(address => bool) public hasBeenPaired;\n\n \tevent newRandomTickerAndSupply(string ticker, uint256 supply);\n \tevent constructedCorrectly(address erc20Address);\n\tconstructor(ERC20TD _TDERC20) \n\tpublic \n\t{\n\t\tTDERC20 = _TDERC20;\n\t\temit constructedCorrectly(address(TDERC20));\n\n\t}\n\n\tfallback () external payable \n\t{}\n\n\treceive () external payable \n\t{}\n\n\n\tfunction ex1_getTickerAndSupply()\n\tpublic\n\t{\n\t\tassignedSupply[msg.sender] = randomSupplies[nextValueStoreRank]*1000000000000000000;\n\t\t// assignedTicker[msg.sender] = bytes32ToString(randomTickers[nextValueStoreRank]);\n\t\tassignedTicker[msg.sender] = randomTickers[nextValueStoreRank];\n\n\t\tnextValueStoreRank += 1;\n\t\tif (nextValueStoreRank >= 20)\n\t\t{\n\t\t\tnextValueStoreRank = 0;\n\t\t}\n\n\t\t// Crediting points\n\t\tif (!exerciceProgression[msg.sender][1])\n\t\t{\n\t\t\texerciceProgression[msg.sender][1] = true;\n\t\t\tTDERC20.distributeTokens(msg.sender, 1);\n\t\t}\n\t}\n\n\tfunction ex2_testErc20TickerAndSupply()\n\tpublic\n\t{\n\t\t// Checking ticker and supply were received\n\t\trequire(exerciceProgression[msg.sender][1]);\n\n\t\t// Checking exercice was submitted\n\t\trequire(exerciceProgression[msg.sender][0]);\n\n\t\t// Checking ticker was set properly\n\t\trequire(_compareStrings(assignedTicker[msg.sender], studentErc20[msg.sender].symbol()), \"Incorrect ticker\");\n\t\t// Checking supply was set properly\n\t\trequire(assignedSupply[msg.sender] == studentErc20[msg.sender].totalSupply(), \"Incorrect supply\");\n\t\t// Checking some ERC20 functions were created\n\t\trequire(studentErc20[msg.sender].allowance(address(this), msg.sender) == 0, \"Allowance not implemented or incorrectly set\");\n\t\trequire(studentErc20[msg.sender].balanceOf(address(this)) == 0, \"BalanceOf not implemented or incorrectly set\");\n\t\trequire(studentErc20[msg.sender].approve(msg.sender, 10), \"Approve not implemented\");\n\n\t\t// Crediting points\n\t\tif (!exerciceProgression[msg.sender][2])\n\t\t{\n\t\t\texerciceProgression[msg.sender][2] = true;\n\t\t\t// Creating ERC20\n\t\t\tTDERC20.distributeTokens(msg.sender, 2);\n\t\t}\n\n\t}\n\n\tfunction ex3_testGetToken()\n\tpublic\n\t{\n\t\t// Checking ERC20 was created\n\t\trequire(address(studentErc20[msg.sender]) != address(0), \"Student ERC20 not registered\");\n\n\t\t// Retrieving initial balance\n\t\tuint256 initialBalance = studentErc20[msg.sender].balanceOf(address(this));\n\n\t\t// Call getToken\n\t\tstudentErc20[msg.sender].getToken();\n\n\t\t// Retrieving final balance\n\t\tuint256 finalBalance = studentErc20[msg.sender].balanceOf(address(this));\n\n\t\trequire(initialBalance < finalBalance, \"Token balance did not increase\");\n\n\t\tif (!exerciceProgression[msg.sender][3])\n\t\t{\n\t\t\texerciceProgression[msg.sender][3] = true;\n\t\t\t// Distribute points\n\t\t\tTDERC20.distributeTokens(msg.sender, 2);\n\n\t\t}\n\t}\n\n\tfunction ex4_testBuyToken()\n\tpublic\n\t{\n\n\t\t_testBuyToken();\n\n\t\tif (!exerciceProgression[msg.sender][4])\n\t\t{\n\t\t\texerciceProgression[msg.sender][4] = true;\n\t\t\t// Distribute points\n\t\t\tTDERC20.distributeTokens(msg.sender, 2);\n\t\t}\n\t}\n\n\tfunction ex5_testDenyListing()\n\tpublic\n\t{\n\t\t// Checking ERC20 was created\n\n\t\trequire(address(studentErc20[msg.sender]) != address(0), \"Student ERC20 not registered\");\n\n\t\trequire(!studentErc20[msg.sender].isCustomerWhiteListed(address(this)));\n\t\t\n\t\tbool wasBuyAccepted = true;\n\t\t\n\t\ttry studentErc20[msg.sender].getToken() returns (bool v) \n\t\t{\n\t\t\twasBuyAccepted = v;\n        } \n        catch \n        {\n            // This is executed in case revert() was used.\n            wasBuyAccepted = false;\n        }\n        require(!wasBuyAccepted);\n\n        if (!exerciceProgression[msg.sender][5])\n\t\t{\n\t\t\texerciceProgression[msg.sender][5] = true;\n\t\t\t// Distribute points\n\t\t\tTDERC20.distributeTokens(msg.sender, 1);\n\t\t}\n\t}\n\n\tfunction ex6_testAllowListing()\n\tpublic\n\t{\n\t\t// Checking ERC20 was created\n\t\trequire(address(studentErc20[msg.sender]) != address(0), \"Student ERC20 not registered\");\n\t\t// Checking ex5 was done\n\t\trequire(exerciceProgression[msg.sender][5]);\n\n\t\t// Check if the current contract is whitelisted\n\t\trequire(studentErc20[msg.sender].isCustomerWhiteListed(address(this)));\n\n\t\t// Trying to buy\n\t\tex3_testGetToken();\n\n        if (!exerciceProgression[msg.sender][6])\n\t\t{\n\t\t\texerciceProgression[msg.sender][6] = true;\n\t\t\t// Distribute points\n\t\t\tTDERC20.distributeTokens(msg.sender, 2);\n\t\t}\n\t}\n\n\tfunction ex7_testDenyListing()\n\tpublic\n\t{\n\t\t// Checking ERC20 was created\n\t\trequire(address(studentErc20[msg.sender]) != address(0), \"Student ERC20 not registered\");\n\n\t\trequire(!studentErc20[msg.sender].isCustomerWhiteListed(address(this)));\n\n\t\trequire(studentErc20[msg.sender].customerTierLevel(address(this)) == 0);\n\n\t\tbool wasBuyAccepted = true;\n\t\ttry studentErc20[msg.sender].buyToken.value(0.0001 ether)() returns (bool v) \n\t\t{\n\t\t\twasBuyAccepted = v;\n        } \n        catch \n        {\n            // This is executed in case revert() was used.\n            wasBuyAccepted = false;\n        }\n\n        require(!wasBuyAccepted);\n\n        if (!exerciceProgression[msg.sender][7])\n\t\t{\n\t\t\texerciceProgression[msg.sender][7] = true;\n\t\t\t// Distribute points\n\t\t\tTDERC20.distributeTokens(msg.sender, 1);\n\t\t}\n\t}\n\n\tfunction ex8_testTier1Listing()\n\tpublic\n\t{\n\t\t// Checking ERC20 was created\n\t\trequire(address(studentErc20[msg.sender]) != address(0), \"Student ERC20 not registered\");\n\t\t// Checking ex7 was done\n\t\trequire(exerciceProgression[msg.sender][7]);\n\n\t\t// Check if the current contract is whitelisted\n\t\trequire(studentErc20[msg.sender].isCustomerWhiteListed(address(this)));\n\n\t\t// Check if the current contract has the correct tier level\n\t\trequire(studentErc20[msg.sender].customerTierLevel(address(this)) == 1);\n\n\t\t// Trying to buy\n\t\tex8Tier1AmountBought[msg.sender] = _testBuyToken();\n\n        if (!exerciceProgression[msg.sender][8])\n\t\t{\n\t\t\texerciceProgression[msg.sender][8] = true;\n\t\t\t// Distribute points\n\t\t\tTDERC20.distributeTokens(msg.sender, 2);\n\t\t}\n\t}\n\n\tfunction ex9_testTier2Listing()\n\tpublic\n\t{\n\t\t// Checking ERC20 was created\n\t\trequire(address(studentErc20[msg.sender]) != address(0), \"Student ERC20 not registered\");\n\t\t// Checking ex7 was done\n\t\trequire(exerciceProgression[msg.sender][7]);\n\n\t\t// Check if the current contract is whitelisted\n\t\trequire(studentErc20[msg.sender].isCustomerWhiteListed(address(this)));\n\n\t\t// Check if the current contract has the correct tier level\n\t\trequire(studentErc20[msg.sender].customerTierLevel(address(this)) == 2);\n\n\t\t// Trying to buy\n\t\tuint256 tier2AmountBought = _testBuyToken();\n\n\t\t// Checking that bought amount is twice what was bought before, for the same price\n\t\trequire(tier2AmountBought == 2 * ex8Tier1AmountBought[msg.sender]);\n\n\n        if (!exerciceProgression[msg.sender][9])\n\t\t{\n\t\t\texerciceProgression[msg.sender][9] = true;\n\t\t\t// Distribute points\n\t\t\tTDERC20.distributeTokens(msg.sender, 2);\n\t\t}\n\t}\n\n\n\t/* Internal functions and modifiers */ \n\n\n\tmodifier onlyTeachers() \n\t{\n\n\t    require(TDERC20.teachers(msg.sender));\n\t    _;\n\t}\n\n\tfunction submitExercice(IExerciceSolution studentExercice)\n\tpublic\n\t{\n\t\t// Checking this contract was not used by another group before\n\t\trequire(!hasBeenPaired[address(studentExercice)]);\n\n\t\t// Assigning passed ERC20 as student ERC20\n\t\tstudentErc20[msg.sender] = studentExercice;\n\t\thasBeenPaired[address(studentExercice)] = true;\n\t\tif (!exerciceProgression[msg.sender][0])\n\t\t{\n\t\t\texerciceProgression[msg.sender][0] = true;\n\t\t\t// Setup points\n\t\t\tTDERC20.distributeTokens(msg.sender, 2);\n\t\t\t// Creating contract points\n\t\t\tTDERC20.distributeTokens(msg.sender, 2);\n\t\t\t// Deploying contract points\n\t\t\tTDERC20.distributeTokens(msg.sender, 1);\n\t\t}\n\t\t\t\n\t}\n\n\tfunction _compareStrings(string memory a, string memory b) \n\tinternal \n\tpure \n\treturns (bool) \n\t{\n    \treturn (keccak256(abi.encodePacked((a))) == keccak256(abi.encodePacked((b))));\n\t}\n\n\tfunction bytes32ToString(bytes32 _bytes32) \n\tpublic \n\tpure returns (string memory) \n\t{\n        uint8 i = 0;\n        while(i < 32 && _bytes32[i] != 0) {\n            i++;\n        }\n        bytes memory bytesArray = new bytes(i);\n        for (i = 0; i < 32 && _bytes32[i] != 0; i++) {\n            bytesArray[i] = _bytes32[i];\n        }\n        return string(bytesArray);\n    }\n\n\tfunction _testBuyToken()\n\tinternal\n\treturns(uint256 firstBuyAmount)\n\t{\n\t\t// Checking ERC20 was created\n\t\trequire(address(studentErc20[msg.sender]) != address(0), \"Student ERC20 not registered\");\n\n\t\t// Retrieving initial balance\n\t\tuint256 initialBalance = studentErc20[msg.sender].balanceOf(address(this));\n\n\t\t// Call buyToken\n\t\tstudentErc20[msg.sender].buyToken.value(0.0001 ether)();\n\n\t\t// Retrieving intermediate balance\n\t\tuint256 intermediateBalance = studentErc20[msg.sender].balanceOf(address(this));\n\n\t\trequire(initialBalance < intermediateBalance, \"Token balance did not increase\");\n\n\t\tfirstBuyAmount = intermediateBalance - initialBalance;\n\n\t\t// Call buyToken again\n\t\tstudentErc20[msg.sender].buyToken.value(0.0003 ether)();\n\n\t\t// Retrieving final balance\n\t\tuint256 finalBalance = studentErc20[msg.sender].balanceOf(address(this));\n\n\t\trequire(intermediateBalance < finalBalance, \"Token balance did not increase\");\n\n\t\tuint256 secondBuyAmount = finalBalance - intermediateBalance;\n\n\t\t// Check that second buy amount was a different amount that first buy amount\n\n\t\trequire(secondBuyAmount > firstBuyAmount, \"Second buy amount lower than first\");\n\t}\n\n\tfunction readTicker(address studentAddres)\n\tpublic\n\tview\n\treturns(string memory)\n\t{\n\t\treturn assignedTicker[studentAddres];\n\t}\n\n\tfunction readSupply(address studentAddres)\n\tpublic\n\tview\n\treturns(uint256)\n\t{\n\t\treturn assignedSupply[studentAddres];\n\t}\n\n\tfunction setRandomTickersAndSupply(uint256[20] memory _randomSupplies, string[20] memory _randomTickers) \n\tpublic \n\tonlyTeachers\n\t{\n\t\trandomSupplies = _randomSupplies;\n\t\trandomTickers = _randomTickers;\n\t\tnextValueStoreRank = 0;\n\t\tfor (uint i = 0; i < 20; i++)\n\t\t{\n\t\t\temit newRandomTickerAndSupply(randomTickers[i], randomSupplies[i]);\n\t\t}\n\t}\n\n\n\n\n}",
  "sourcePath": "/home/user/Bureau/Blockchain/erc20-101/contracts/Evaluator.sol",
  "compiler": {
    "name": "solc",
    "version": "0.6.2+commit.bacdbe57.Emscripten.clang"
  },
  "schemaVersion": "3.4.3",
  "updatedAt": "2021-11-24T21:40:45.709Z",
  "networkType": "ethereum",
  "devdoc": {
    "methods": {}
  },
  "userdoc": {
    "methods": {}
  }
}