{
  "contractName": "Evaluator",
  "abi": [
    {
      "inputs": [
        {
          "internalType": "contract ERC20TD",
          "name": "_TDERC20",
          "type": "address"
        }
      ],
      "stateMutability": "nonpayable",
      "type": "constructor"
    },
    {
      "anonymous": false,
      "inputs": [
        {
          "indexed": false,
          "internalType": "address",
          "name": "erc20Address",
          "type": "address"
        }
      ],
      "name": "constructedCorrectly",
      "type": "event"
    },
    {
      "anonymous": false,
      "inputs": [
        {
          "indexed": false,
          "internalType": "string",
          "name": "ticker",
          "type": "string"
        },
        {
          "indexed": false,
          "internalType": "uint256",
          "name": "supply",
          "type": "uint256"
        }
      ],
      "name": "newRandomTickerAndSupply",
      "type": "event"
    },
    {
      "stateMutability": "payable",
      "type": "fallback"
    },
    {
      "inputs": [
        {
          "internalType": "address",
          "name": "",
          "type": "address"
        }
      ],
      "name": "assignedSupply",
      "outputs": [
        {
          "internalType": "uint256",
          "name": "",
          "type": "uint256"
        }
      ],
      "stateMutability": "view",
      "type": "function"
    },
    {
      "inputs": [
        {
          "internalType": "address",
          "name": "",
          "type": "address"
        }
      ],
      "name": "assignedTicker",
      "outputs": [
        {
          "internalType": "string",
          "name": "",
          "type": "string"
        }
      ],
      "stateMutability": "view",
      "type": "function"
    },
    {
      "inputs": [
        {
          "internalType": "address",
          "name": "",
          "type": "address"
        }
      ],
      "name": "ex8Tier1AmountBought",
      "outputs": [
        {
          "internalType": "uint256",
          "name": "",
          "type": "uint256"
        }
      ],
      "stateMutability": "view",
      "type": "function"
    },
    {
      "inputs": [
        {
          "internalType": "address",
          "name": "",
          "type": "address"
        },
        {
          "internalType": "uint256",
          "name": "",
          "type": "uint256"
        }
      ],
      "name": "exerciceProgression",
      "outputs": [
        {
          "internalType": "bool",
          "name": "",
          "type": "bool"
        }
      ],
      "stateMutability": "view",
      "type": "function"
    },
    {
      "inputs": [
        {
          "internalType": "address",
          "name": "",
          "type": "address"
        }
      ],
      "name": "hasBeenPaired",
      "outputs": [
        {
          "internalType": "bool",
          "name": "",
          "type": "bool"
        }
      ],
      "stateMutability": "view",
      "type": "function"
    },
    {
      "inputs": [],
      "name": "nextValueStoreRank",
      "outputs": [
        {
          "internalType": "uint256",
          "name": "",
          "type": "uint256"
        }
      ],
      "stateMutability": "view",
      "type": "function"
    },
    {
      "inputs": [
        {
          "internalType": "address",
          "name": "",
          "type": "address"
        }
      ],
      "name": "studentErc20",
      "outputs": [
        {
          "internalType": "contract IExerciceSolution",
          "name": "",
          "type": "address"
        }
      ],
      "stateMutability": "view",
      "type": "function"
    },
    {
      "inputs": [
        {
          "internalType": "address",
          "name": "",
          "type": "address"
        }
      ],
      "name": "teachers",
      "outputs": [
        {
          "internalType": "bool",
          "name": "",
          "type": "bool"
        }
      ],
      "stateMutability": "view",
      "type": "function"
    },
    {
      "stateMutability": "payable",
      "type": "receive"
    },
    {
      "inputs": [],
      "name": "ex1_getTickerAndSupply",
      "outputs": [],
      "stateMutability": "nonpayable",
      "type": "function"
    },
    {
      "inputs": [],
      "name": "ex2_testErc20TickerAndSupply",
      "outputs": [],
      "stateMutability": "nonpayable",
      "type": "function"
    },
    {
      "inputs": [],
      "name": "ex3_testGetToken",
      "outputs": [],
      "stateMutability": "nonpayable",
      "type": "function"
    },
    {
      "inputs": [],
      "name": "ex4_testBuyToken",
      "outputs": [],
      "stateMutability": "nonpayable",
      "type": "function"
    },
    {
      "inputs": [],
      "name": "ex5_testDenyListing",
      "outputs": [],
      "stateMutability": "nonpayable",
      "type": "function"
    },
    {
      "inputs": [],
      "name": "ex6_testAllowListing",
      "outputs": [],
      "stateMutability": "nonpayable",
      "type": "function"
    },
    {
      "inputs": [],
      "name": "ex7_testDenyListing",
      "outputs": [],
      "stateMutability": "nonpayable",
      "type": "function"
    },
    {
      "inputs": [],
      "name": "ex8_testTier1Listing",
      "outputs": [],
      "stateMutability": "nonpayable",
      "type": "function"
    },
    {
      "inputs": [],
      "name": "ex9_testTier2Listing",
      "outputs": [],
      "stateMutability": "nonpayable",
      "type": "function"
    },
    {
      "inputs": [
        {
          "internalType": "contract IExerciceSolution",
          "name": "studentExercice",
          "type": "address"
        }
      ],
      "name": "submitExercice",
      "outputs": [],
      "stateMutability": "nonpayable",
      "type": "function"
    },
    {
      "inputs": [
        {
          "internalType": "bytes32",
          "name": "_bytes32",
          "type": "bytes32"
        }
      ],
      "name": "bytes32ToString",
      "outputs": [
        {
          "internalType": "string",
          "name": "",
          "type": "string"
        }
      ],
      "stateMutability": "pure",
      "type": "function"
    },
    {
      "inputs": [
        {
          "internalType": "address",
          "name": "studentAddres",
          "type": "address"
        }
      ],
      "name": "readTicker",
      "outputs": [
        {
          "internalType": "string",
          "name": "",
          "type": "string"
        }
      ],
      "stateMutability": "view",
      "type": "function"
    },
    {
      "inputs": [
        {
          "internalType": "address",
          "name": "studentAddres",
          "type": "address"
        }
      ],
      "name": "readSupply",
      "outputs": [
        {
          "internalType": "uint256",
          "name": "",
          "type": "uint256"
        }
      ],
      "stateMutability": "view",
      "type": "function"
    },
    {
      "inputs": [
        {
          "internalType": "uint256[20]",
          "name": "_randomSupplies",
          "type": "uint256[20]"
        },
        {
          "internalType": "string[20]",
          "name": "_randomTickers",
          "type": "string[20]"
        }
      ],
      "name": "setRandomTickersAndSupply",
      "outputs": [],
      "stateMutability": "nonpayable",
      "type": "function"
    }
  ],
  "bytecode": "0x60806040523480156200001157600080fd5b5060405162004f7438038062004f748339818101604052620000379190810190620000f1565b80600160006101000a81548173ffffffffffffffffffffffffffffffffffffffff021916908373ffffffffffffffffffffffffffffffffffffffff1602179055507f2915b3b4e0613c6b63dca39a375dd8c9f1de68d9e208a0713b7624260e2d0812600160009054906101000a900473ffffffffffffffffffffffffffffffffffffffff16604051620000cb91906200012e565b60405180910390a150620001ad565b600081519050620000eb8162000193565b92915050565b6000602082840312156200010457600080fd5b60006200011484828501620000da565b91505092915050565b62000128816200014b565b82525050565b60006020820190506200014560008301846200011d565b92915050565b6000620001588262000173565b9050919050565b60006200016c826200014b565b9050919050565b600073ffffffffffffffffffffffffffffffffffffffff82169050919050565b6200019e816200015f565b8114620001aa57600080fd5b50565b614db780620001bd6000396000f3fe6080604052600436106101385760003560e01c8063a6c611d9116100ab578063e22b5dcf1161006f578063e22b5dcf146103cd578063e22ebfd61461040a578063e8b4cb5614610447578063ec65b16e1461045e578063f0a47f7814610475578063f4fdbb88146104b25761013f565b8063a6c611d914610322578063afda5dc514610339578063b32b559f14610376578063ccd64d7d1461038d578063d1a2e76e146103a45761013f565b806339119dce116100fd57806339119dce146102125780633bc409561461023d5780637db60caf146102545780639201de551461029157806398f02097146102ce5780639f91f516146102e55761013f565b8062a3491a146101415780630af78edc1461017e57806316f4b99f146101955780632236d353146101ac5780632e64c500146101d55761013f565b3661013f57005b005b34801561014d57600080fd5b50610168600480360361016391908101906141af565b6104ef565b60405161017591906148e8565b60405180910390f35b34801561018a57600080fd5b5061019361059f565b005b3480156101a157600080fd5b506101aa610931565b005b3480156101b857600080fd5b506101d360048036036101ce91908101906142bc565b610dfc565b005b3480156101e157600080fd5b506101fc60048036036101f791908101906141d8565b6111e9565b60405161020991906148b2565b60405180910390f35b34801561021e57600080fd5b50610227611218565b6040516102349190614a9c565b60405180910390f35b34801561024957600080fd5b5061025261121e565b005b34801561026057600080fd5b5061027b600480360361027691908101906141af565b611749565b6040516102889190614a9c565b60405180910390f35b34801561029d57600080fd5b506102b860048036036102b39190810190614293565b611761565b6040516102c5919061490a565b60405180910390f35b3480156102da57600080fd5b506102e36118be565b005b3480156102f157600080fd5b5061030c600480360361030791908101906141af565b611b0f565b6040516103199190614a9c565b60405180910390f35b34801561032e57600080fd5b50610337611b58565b005b34801561034557600080fd5b50610360600480360361035b91908101906141af565b612074565b60405161036d9190614a9c565b60405180910390f35b34801561038257600080fd5b5061038b61208c565b005b34801561039957600080fd5b506103a26121f5565b005b3480156103b057600080fd5b506103cb60048036036103c69190810190614214565b6126d0565b005b3480156103d957600080fd5b506103f460048036036103ef91908101906141af565b612825565b604051610401919061490a565b60405180910390f35b34801561041657600080fd5b50610431600480360361042c91908101906141af565b612906565b60405161043e91906148cd565b60405180910390f35b34801561045357600080fd5b5061045c612939565b005b34801561046a57600080fd5b50610473613248565b005b34801561048157600080fd5b5061049c600480360361049791908101906141af565b613667565b6040516104a991906148b2565b60405180910390f35b3480156104be57600080fd5b506104d960048036036104d491908101906141af565b613687565b6040516104e691906148b2565b60405180910390f35b602b6020528060005260406000206000915090508054600181600116156101000203166002900480601f0160208091040260200160405190810160405280929190818152602001828054600181600116156101000203166002900480156105975780601f1061056c57610100808354040283529160200191610597565b820191906000526020600020905b81548152906001019060200180831161057a57829003601f168201915b505050505081565b600073ffffffffffffffffffffffffffffffffffffffff16602e60003373ffffffffffffffffffffffffffffffffffffffff1673ffffffffffffffffffffffffffffffffffffffff16815260200190815260200160002060009054906101000a900473ffffffffffffffffffffffffffffffffffffffff1673ffffffffffffffffffffffffffffffffffffffff16141561066e576040517f08c379a000000000000000000000000000000000000000000000000000000000815260040161066590614a1c565b60405180910390fd5b602d60003373ffffffffffffffffffffffffffffffffffffffff1673ffffffffffffffffffffffffffffffffffffffff16815260200190815260200160002060006005815260200190815260200160002060009054906101000a900460ff166106d657600080fd5b602e60003373ffffffffffffffffffffffffffffffffffffffff1673ffffffffffffffffffffffffffffffffffffffff16815260200190815260200160002060009054906101000a900473ffffffffffffffffffffffffffffffffffffffff1673ffffffffffffffffffffffffffffffffffffffff1663d48a87f1306040518263ffffffff1660e01b815260040161076e91906147f3565b602060405180830381600087803b15801561078857600080fd5b505af115801561079c573d6000803e3d6000fd5b505050506040513d601f19601f820116820180604052506107c0919081019061426a565b6107c957600080fd5b6107d161121e565b602d60003373ffffffffffffffffffffffffffffffffffffffff1673ffffffffffffffffffffffffffffffffffffffff16815260200190815260200160002060006006815260200190815260200160002060009054906101000a900460ff1661092f576001602d60003373ffffffffffffffffffffffffffffffffffffffff1673ffffffffffffffffffffffffffffffffffffffff16815260200190815260200160002060006006815260200190815260200160002060006101000a81548160ff021916908315150217905550600160009054906101000a900473ffffffffffffffffffffffffffffffffffffffff1673ffffffffffffffffffffffffffffffffffffffff1663158a49883360026040518363ffffffff1660e01b81526004016108fc929190614889565b600060405180830381600087803b15801561091657600080fd5b505af115801561092a573d6000803e3d6000fd5b505050505b565b600073ffffffffffffffffffffffffffffffffffffffff16602e60003373ffffffffffffffffffffffffffffffffffffffff1673ffffffffffffffffffffffffffffffffffffffff16815260200190815260200160002060009054906101000a900473ffffffffffffffffffffffffffffffffffffffff1673ffffffffffffffffffffffffffffffffffffffff161415610a00576040517f08c379a00000000000000000000000000000000000000000000000000000000081526004016109f790614a1c565b60405180910390fd5b602d60003373ffffffffffffffffffffffffffffffffffffffff1673ffffffffffffffffffffffffffffffffffffffff16815260200190815260200160002060006007815260200190815260200160002060009054906101000a900460ff16610a6857600080fd5b602e60003373ffffffffffffffffffffffffffffffffffffffff1673ffffffffffffffffffffffffffffffffffffffff16815260200190815260200160002060009054906101000a900473ffffffffffffffffffffffffffffffffffffffff1673ffffffffffffffffffffffffffffffffffffffff1663d48a87f1306040518263ffffffff1660e01b8152600401610b0091906147f3565b602060405180830381600087803b158015610b1a57600080fd5b505af1158015610b2e573d6000803e3d6000fd5b505050506040513d601f19601f82011682018060405250610b52919081019061426a565b610b5b57600080fd5b6001602e60003373ffffffffffffffffffffffffffffffffffffffff1673ffffffffffffffffffffffffffffffffffffffff16815260200190815260200160002060009054906101000a900473ffffffffffffffffffffffffffffffffffffffff1673ffffffffffffffffffffffffffffffffffffffff16638dd3fda9306040518263ffffffff1660e01b8152600401610bf591906147f3565b602060405180830381600087803b158015610c0f57600080fd5b505af1158015610c23573d6000803e3d6000fd5b505050506040513d601f19601f82011682018060405250610c479190810190614326565b14610c5157600080fd5b610c596136a7565b602f60003373ffffffffffffffffffffffffffffffffffffffff1673ffffffffffffffffffffffffffffffffffffffff16815260200190815260200160002081905550602d60003373ffffffffffffffffffffffffffffffffffffffff1673ffffffffffffffffffffffffffffffffffffffff16815260200190815260200160002060006008815260200190815260200160002060009054906101000a900460ff16610dfa576001602d60003373ffffffffffffffffffffffffffffffffffffffff1673ffffffffffffffffffffffffffffffffffffffff16815260200190815260200160002060006008815260200190815260200160002060006101000a81548160ff021916908315150217905550600160009054906101000a900473ffffffffffffffffffffffffffffffffffffffff1673ffffffffffffffffffffffffffffffffffffffff1663158a49883360026040518363ffffffff1660e01b8152600401610dc7929190614889565b600060405180830381600087803b158015610de157600080fd5b505af1158015610df5573d6000803e3d6000fd5b505050505b565b6001610e3d576040517f08c379a0000000000000000000000000000000000000000000000000000000008152600401610e3490614a5c565b60405180910390fd5b603060008273ffffffffffffffffffffffffffffffffffffffff1673ffffffffffffffffffffffffffffffffffffffff16815260200190815260200160002060009054906101000a900460ff1615610e9457600080fd5b80602e60003373ffffffffffffffffffffffffffffffffffffffff1673ffffffffffffffffffffffffffffffffffffffff16815260200190815260200160002060006101000a81548173ffffffffffffffffffffffffffffffffffffffff021916908373ffffffffffffffffffffffffffffffffffffffff1602179055506001603060008373ffffffffffffffffffffffffffffffffffffffff1673ffffffffffffffffffffffffffffffffffffffff16815260200190815260200160002060006101000a81548160ff021916908315150217905550602d60003373ffffffffffffffffffffffffffffffffffffffff1673ffffffffffffffffffffffffffffffffffffffff168152602001908152602001600020600080815260200190815260200160002060009054906101000a900460ff166111e6576001602d60003373ffffffffffffffffffffffffffffffffffffffff1673ffffffffffffffffffffffffffffffffffffffff168152602001908152602001600020600080815260200190815260200160002060006101000a81548160ff021916908315150217905550600160009054906101000a900473ffffffffffffffffffffffffffffffffffffffff1673ffffffffffffffffffffffffffffffffffffffff1663158a49883360026040518363ffffffff1660e01b8152600401611093929190614889565b600060405180830381600087803b1580156110ad57600080fd5b505af11580156110c1573d6000803e3d6000fd5b50505050600160009054906101000a900473ffffffffffffffffffffffffffffffffffffffff1673ffffffffffffffffffffffffffffffffffffffff1663158a49883360026040518363ffffffff1660e01b8152600401611123929190614889565b600060405180830381600087803b15801561113d57600080fd5b505af1158015611151573d6000803e3d6000fd5b50505050600160009054906101000a900473ffffffffffffffffffffffffffffffffffffffff1673ffffffffffffffffffffffffffffffffffffffff1663158a49883360016040518363ffffffff1660e01b81526004016111b3929190614860565b600060405180830381600087803b1580156111cd57600080fd5b505af11580156111e1573d6000803e3d6000fd5b505050505b50565b602d6020528160005260406000206020528060005260406000206000915091509054906101000a900460ff1681565b602a5481565b600073ffffffffffffffffffffffffffffffffffffffff16602e60003373ffffffffffffffffffffffffffffffffffffffff1673ffffffffffffffffffffffffffffffffffffffff16815260200190815260200160002060009054906101000a900473ffffffffffffffffffffffffffffffffffffffff1673ffffffffffffffffffffffffffffffffffffffff1614156112ed576040517f08c379a00000000000000000000000000000000000000000000000000000000081526004016112e490614a1c565b60405180910390fd5b6000602e60003373ffffffffffffffffffffffffffffffffffffffff1673ffffffffffffffffffffffffffffffffffffffff16815260200190815260200160002060009054906101000a900473ffffffffffffffffffffffffffffffffffffffff1673ffffffffffffffffffffffffffffffffffffffff166370a08231306040518263ffffffff1660e01b815260040161138791906147f3565b60206040518083038186803b15801561139f57600080fd5b505afa1580156113b3573d6000803e3d6000fd5b505050506040513d601f19601f820116820180604052506113d79190810190614326565b9050602e60003373ffffffffffffffffffffffffffffffffffffffff1673ffffffffffffffffffffffffffffffffffffffff16815260200190815260200160002060009054906101000a900473ffffffffffffffffffffffffffffffffffffffff1673ffffffffffffffffffffffffffffffffffffffff166321df0da76040518163ffffffff1660e01b8152600401602060405180830381600087803b15801561148057600080fd5b505af1158015611494573d6000803e3d6000fd5b505050506040513d601f19601f820116820180604052506114b8919081019061426a565b506000602e60003373ffffffffffffffffffffffffffffffffffffffff1673ffffffffffffffffffffffffffffffffffffffff16815260200190815260200160002060009054906101000a900473ffffffffffffffffffffffffffffffffffffffff1673ffffffffffffffffffffffffffffffffffffffff166370a08231306040518263ffffffff1660e01b815260040161155391906147f3565b60206040518083038186803b15801561156b57600080fd5b505afa15801561157f573d6000803e3d6000fd5b505050506040513d601f19601f820116820180604052506115a39190810190614326565b90508082106115e7576040517f08c379a00000000000000000000000000000000000000000000000000000000081526004016115de9061499c565b60405180910390fd5b602d60003373ffffffffffffffffffffffffffffffffffffffff1673ffffffffffffffffffffffffffffffffffffffff16815260200190815260200160002060006003815260200190815260200160002060009054906101000a900460ff16611745576001602d60003373ffffffffffffffffffffffffffffffffffffffff1673ffffffffffffffffffffffffffffffffffffffff16815260200190815260200160002060006003815260200190815260200160002060006101000a81548160ff021916908315150217905550600160009054906101000a900473ffffffffffffffffffffffffffffffffffffffff1673ffffffffffffffffffffffffffffffffffffffff1663158a49883360026040518363ffffffff1660e01b8152600401611712929190614889565b600060405180830381600087803b15801561172c57600080fd5b505af1158015611740573d6000803e3d6000fd5b505050505b5050565b602c6020528060005260406000206000915090505481565b606060008090505b60208160ff161080156117b45750600060f81b838260ff166020811061178b57fe5b1a60f81b7effffffffffffffffffffffffffffffffffffffffffffffffffffffffffffff191614155b156117c6578080600101915050611769565b60608160ff166040519080825280601f01601f1916602001820160405280156117fe5781602001600182028038833980820191505090505b509050600091505b60208260ff161080156118515750600060f81b848360ff166020811061182857fe5b1a60f81b7effffffffffffffffffffffffffffffffffffffffffffffffffffffffffffff191614155b156118b457838260ff166020811061186557fe5b1a60f81b818360ff168151811061187857fe5b60200101907effffffffffffffffffffffffffffffffffffffffffffffffffffffffffffff1916908160001a9053508180600101925050611806565b8092505050919050565b670de0b6b3a76400006002602a54601481106118d657fe5b015402602c60003373ffffffffffffffffffffffffffffffffffffffff1673ffffffffffffffffffffffffffffffffffffffff168152602001908152602001600020819055506016602a546014811061192b57fe5b01602b60003373ffffffffffffffffffffffffffffffffffffffff1673ffffffffffffffffffffffffffffffffffffffff168152602001908152602001600020908054600181600116156101000203166002900461198a929190613d7d565b506001602a600082825401925050819055506014602a54106119af576000602a819055505b602d60003373ffffffffffffffffffffffffffffffffffffffff1673ffffffffffffffffffffffffffffffffffffffff16815260200190815260200160002060006001815260200190815260200160002060009054906101000a900460ff16611b0d576001602d60003373ffffffffffffffffffffffffffffffffffffffff1673ffffffffffffffffffffffffffffffffffffffff16815260200190815260200160002060006001815260200190815260200160002060006101000a81548160ff021916908315150217905550600160009054906101000a900473ffffffffffffffffffffffffffffffffffffffff1673ffffffffffffffffffffffffffffffffffffffff1663158a49883360016040518363ffffffff1660e01b8152600401611ada929190614860565b600060405180830381600087803b158015611af457600080fd5b505af1158015611b08573d6000803e3d6000fd5b505050505b565b6000602c60008373ffffffffffffffffffffffffffffffffffffffff1673ffffffffffffffffffffffffffffffffffffffff168152602001908152602001600020549050919050565b600073ffffffffffffffffffffffffffffffffffffffff16602e60003373ffffffffffffffffffffffffffffffffffffffff1673ffffffffffffffffffffffffffffffffffffffff16815260200190815260200160002060009054906101000a900473ffffffffffffffffffffffffffffffffffffffff1673ffffffffffffffffffffffffffffffffffffffff161415611c27576040517f08c379a0000000000000000000000000000000000000000000000000000000008152600401611c1e90614a1c565b60405180910390fd5b602e60003373ffffffffffffffffffffffffffffffffffffffff1673ffffffffffffffffffffffffffffffffffffffff16815260200190815260200160002060009054906101000a900473ffffffffffffffffffffffffffffffffffffffff1673ffffffffffffffffffffffffffffffffffffffff1663d48a87f1306040518263ffffffff1660e01b8152600401611cbf91906147f3565b602060405180830381600087803b158015611cd957600080fd5b505af1158015611ced573d6000803e3d6000fd5b505050506040513d601f19601f82011682018060405250611d11919081019061426a565b15611d1b57600080fd5b6000602e60003373ffffffffffffffffffffffffffffffffffffffff1673ffffffffffffffffffffffffffffffffffffffff16815260200190815260200160002060009054906101000a900473ffffffffffffffffffffffffffffffffffffffff1673ffffffffffffffffffffffffffffffffffffffff16638dd3fda9306040518263ffffffff1660e01b8152600401611db591906147f3565b602060405180830381600087803b158015611dcf57600080fd5b505af1158015611de3573d6000803e3d6000fd5b505050506040513d601f19601f82011682018060405250611e079190810190614326565b14611e1157600080fd5b600060019050602e60003373ffffffffffffffffffffffffffffffffffffffff1673ffffffffffffffffffffffffffffffffffffffff16815260200190815260200160002060009054906101000a900473ffffffffffffffffffffffffffffffffffffffff1673ffffffffffffffffffffffffffffffffffffffff1663a4821719655af3107a40006040518263ffffffff1660e01b81526004016020604051808303818588803b158015611ec457600080fd5b505af193505050508015611ef657506040513d601f19601f82011682018060405250611ef3919081019061426a565b60015b611f035760009050611f08565b809150505b8015611f1357600080fd5b602d60003373ffffffffffffffffffffffffffffffffffffffff1673ffffffffffffffffffffffffffffffffffffffff16815260200190815260200160002060006007815260200190815260200160002060009054906101000a900460ff16612071576001602d60003373ffffffffffffffffffffffffffffffffffffffff1673ffffffffffffffffffffffffffffffffffffffff16815260200190815260200160002060006007815260200190815260200160002060006101000a81548160ff021916908315150217905550600160009054906101000a900473ffffffffffffffffffffffffffffffffffffffff1673ffffffffffffffffffffffffffffffffffffffff1663158a49883360016040518363ffffffff1660e01b815260040161203e929190614860565b600060405180830381600087803b15801561205857600080fd5b505af115801561206c573d6000803e3d6000fd5b505050505b50565b602f6020528060005260406000206000915090505481565b6120946136a7565b50602d60003373ffffffffffffffffffffffffffffffffffffffff1673ffffffffffffffffffffffffffffffffffffffff16815260200190815260200160002060006004815260200190815260200160002060009054906101000a900460ff166121f3576001602d60003373ffffffffffffffffffffffffffffffffffffffff1673ffffffffffffffffffffffffffffffffffffffff16815260200190815260200160002060006004815260200190815260200160002060006101000a81548160ff021916908315150217905550600160009054906101000a900473ffffffffffffffffffffffffffffffffffffffff1673ffffffffffffffffffffffffffffffffffffffff1663158a49883360026040518363ffffffff1660e01b81526004016121c0929190614889565b600060405180830381600087803b1580156121da57600080fd5b505af11580156121ee573d6000803e3d6000fd5b505050505b565b600073ffffffffffffffffffffffffffffffffffffffff16602e60003373ffffffffffffffffffffffffffffffffffffffff1673ffffffffffffffffffffffffffffffffffffffff16815260200190815260200160002060009054906101000a900473ffffffffffffffffffffffffffffffffffffffff1673ffffffffffffffffffffffffffffffffffffffff1614156122c4576040517f08c379a00000000000000000000000000000000000000000000000000000000081526004016122bb90614a1c565b60405180910390fd5b602d60003373ffffffffffffffffffffffffffffffffffffffff1673ffffffffffffffffffffffffffffffffffffffff16815260200190815260200160002060006007815260200190815260200160002060009054906101000a900460ff1661232c57600080fd5b602e60003373ffffffffffffffffffffffffffffffffffffffff1673ffffffffffffffffffffffffffffffffffffffff16815260200190815260200160002060009054906101000a900473ffffffffffffffffffffffffffffffffffffffff1673ffffffffffffffffffffffffffffffffffffffff1663d48a87f1306040518263ffffffff1660e01b81526004016123c491906147f3565b602060405180830381600087803b1580156123de57600080fd5b505af11580156123f2573d6000803e3d6000fd5b505050506040513d601f19601f82011682018060405250612416919081019061426a565b61241f57600080fd5b6002602e60003373ffffffffffffffffffffffffffffffffffffffff1673ffffffffffffffffffffffffffffffffffffffff16815260200190815260200160002060009054906101000a900473ffffffffffffffffffffffffffffffffffffffff1673ffffffffffffffffffffffffffffffffffffffff16638dd3fda9306040518263ffffffff1660e01b81526004016124b991906147f3565b602060405180830381600087803b1580156124d357600080fd5b505af11580156124e7573d6000803e3d6000fd5b505050506040513d601f19601f8201168201806040525061250b9190810190614326565b1461251557600080fd5b600061251f6136a7565b9050602f60003373ffffffffffffffffffffffffffffffffffffffff1673ffffffffffffffffffffffffffffffffffffffff16815260200190815260200160002054600202811461256f57600080fd5b602d60003373ffffffffffffffffffffffffffffffffffffffff1673ffffffffffffffffffffffffffffffffffffffff16815260200190815260200160002060006009815260200190815260200160002060009054906101000a900460ff166126cd576001602d60003373ffffffffffffffffffffffffffffffffffffffff1673ffffffffffffffffffffffffffffffffffffffff16815260200190815260200160002060006009815260200190815260200160002060006101000a81548160ff021916908315150217905550600160009054906101000a900473ffffffffffffffffffffffffffffffffffffffff1673ffffffffffffffffffffffffffffffffffffffff1663158a49883360026040518363ffffffff1660e01b815260040161269a929190614889565b600060405180830381600087803b1580156126b457600080fd5b505af11580156126c8573d6000803e3d6000fd5b505050505b50565b600160009054906101000a900473ffffffffffffffffffffffffffffffffffffffff1673ffffffffffffffffffffffffffffffffffffffff1663f0a47f78336040518263ffffffff1660e01b815260040161272b91906147f3565b60206040518083038186803b15801561274357600080fd5b505afa158015612757573d6000803e3d6000fd5b505050506040513d601f19601f8201168201806040525061277b919081019061426a565b61278457600080fd5b816002906014612795929190613e04565b508060169060146127a7929190613e44565b506000602a8190555060008090505b6014811015612820577fcc783cf5d663570e7c7576cec91f24975b35b957c8dd67766710be25c48cf602601682601481106127ed57fe5b01600283601481106127fb57fe5b015460405161280b92919061492c565b60405180910390a180806001019150506127b6565b505050565b6060602b60008373ffffffffffffffffffffffffffffffffffffffff1673ffffffffffffffffffffffffffffffffffffffff1681526020019081526020016000208054600181600116156101000203166002900480601f0160208091040260200160405190810160405280929190818152602001828054600181600116156101000203166002900480156128fa5780601f106128cf576101008083540402835291602001916128fa565b820191906000526020600020905b8154815290600101906020018083116128dd57829003601f168201915b50505050509050919050565b602e6020528060005260406000206000915054906101000a900473ffffffffffffffffffffffffffffffffffffffff1681565b602d60003373ffffffffffffffffffffffffffffffffffffffff1673ffffffffffffffffffffffffffffffffffffffff16815260200190815260200160002060006001815260200190815260200160002060009054906101000a900460ff166129a157600080fd5b602d60003373ffffffffffffffffffffffffffffffffffffffff1673ffffffffffffffffffffffffffffffffffffffff168152602001908152602001600020600080815260200190815260200160002060009054906101000a900460ff16612a0857600080fd5b612bca602b60003373ffffffffffffffffffffffffffffffffffffffff1673ffffffffffffffffffffffffffffffffffffffff1681526020019081526020016000208054600181600116156101000203166002900480601f016020809104026020016040519081016040528092919081815260200182805460018160011615610100020316600290048015612ade5780601f10612ab357610100808354040283529160200191612ade565b820191906000526020600020905b815481529060010190602001808311612ac157829003601f168201915b5050505050602e60003373ffffffffffffffffffffffffffffffffffffffff1673ffffffffffffffffffffffffffffffffffffffff16815260200190815260200160002060009054906101000a900473ffffffffffffffffffffffffffffffffffffffff1673ffffffffffffffffffffffffffffffffffffffff166395d89b416040518163ffffffff1660e01b815260040160006040518083038186803b158015612b8857600080fd5b505afa158015612b9c573d6000803e3d6000fd5b505050506040513d6000823e3d601f19601f82011682018060405250612bc591908101906142e5565b613d24565b612c09576040517f08c379a0000000000000000000000000000000000000000000000000000000008152600401612c009061497c565b60405180910390fd5b602e60003373ffffffffffffffffffffffffffffffffffffffff1673ffffffffffffffffffffffffffffffffffffffff16815260200190815260200160002060009054906101000a900473ffffffffffffffffffffffffffffffffffffffff1673ffffffffffffffffffffffffffffffffffffffff166318160ddd6040518163ffffffff1660e01b815260040160206040518083038186803b158015612cae57600080fd5b505afa158015612cc2573d6000803e3d6000fd5b505050506040513d601f19601f82011682018060405250612ce69190810190614326565b602c60003373ffffffffffffffffffffffffffffffffffffffff1673ffffffffffffffffffffffffffffffffffffffff1681526020019081526020016000205414612d66576040517f08c379a0000000000000000000000000000000000000000000000000000000008152600401612d5d90614a3c565b60405180910390fd5b6000602e60003373ffffffffffffffffffffffffffffffffffffffff1673ffffffffffffffffffffffffffffffffffffffff16815260200190815260200160002060009054906101000a900473ffffffffffffffffffffffffffffffffffffffff1673ffffffffffffffffffffffffffffffffffffffff1663dd62ed3e30336040518363ffffffff1660e01b8152600401612e0292919061480e565b60206040518083038186803b158015612e1a57600080fd5b505afa158015612e2e573d6000803e3d6000fd5b505050506040513d601f19601f82011682018060405250612e529190810190614326565b14612e92576040517f08c379a0000000000000000000000000000000000000000000000000000000008152600401612e8990614a7c565b60405180910390fd5b6000602e60003373ffffffffffffffffffffffffffffffffffffffff1673ffffffffffffffffffffffffffffffffffffffff16815260200190815260200160002060009054906101000a900473ffffffffffffffffffffffffffffffffffffffff1673ffffffffffffffffffffffffffffffffffffffff166370a08231306040518263ffffffff1660e01b8152600401612f2c91906147f3565b60206040518083038186803b158015612f4457600080fd5b505afa158015612f58573d6000803e3d6000fd5b505050506040513d601f19601f82011682018060405250612f7c9190810190614326565b14612fbc576040517f08c379a0000000000000000000000000000000000000000000000000000000008152600401612fb3906149dc565b60405180910390fd5b602e60003373ffffffffffffffffffffffffffffffffffffffff1673ffffffffffffffffffffffffffffffffffffffff16815260200190815260200160002060009054906101000a900473ffffffffffffffffffffffffffffffffffffffff1673ffffffffffffffffffffffffffffffffffffffff1663095ea7b333600a6040518363ffffffff1660e01b8152600401613057929190614837565b602060405180830381600087803b15801561307157600080fd5b505af1158015613085573d6000803e3d6000fd5b505050506040513d601f19601f820116820180604052506130a9919081019061426a565b6130e8576040517f08c379a00000000000000000000000000000000000000000000000000000000081526004016130df9061495c565b60405180910390fd5b602d60003373ffffffffffffffffffffffffffffffffffffffff1673ffffffffffffffffffffffffffffffffffffffff16815260200190815260200160002060006002815260200190815260200160002060009054906101000a900460ff16613246576001602d60003373ffffffffffffffffffffffffffffffffffffffff1673ffffffffffffffffffffffffffffffffffffffff16815260200190815260200160002060006002815260200190815260200160002060006101000a81548160ff021916908315150217905550600160009054906101000a900473ffffffffffffffffffffffffffffffffffffffff1673ffffffffffffffffffffffffffffffffffffffff1663158a49883360026040518363ffffffff1660e01b8152600401613213929190614889565b600060405180830381600087803b15801561322d57600080fd5b505af1158015613241573d6000803e3d6000fd5b505050505b565b600073ffffffffffffffffffffffffffffffffffffffff16602e60003373ffffffffffffffffffffffffffffffffffffffff1673ffffffffffffffffffffffffffffffffffffffff16815260200190815260200160002060009054906101000a900473ffffffffffffffffffffffffffffffffffffffff1673ffffffffffffffffffffffffffffffffffffffff161415613317576040517f08c379a000000000000000000000000000000000000000000000000000000000815260040161330e90614a1c565b60405180910390fd5b602e60003373ffffffffffffffffffffffffffffffffffffffff1673ffffffffffffffffffffffffffffffffffffffff16815260200190815260200160002060009054906101000a900473ffffffffffffffffffffffffffffffffffffffff1673ffffffffffffffffffffffffffffffffffffffff1663d48a87f1306040518263ffffffff1660e01b81526004016133af91906147f3565b602060405180830381600087803b1580156133c957600080fd5b505af11580156133dd573d6000803e3d6000fd5b505050506040513d601f19601f82011682018060405250613401919081019061426a565b1561340b57600080fd5b600060019050602e60003373ffffffffffffffffffffffffffffffffffffffff1673ffffffffffffffffffffffffffffffffffffffff16815260200190815260200160002060009054906101000a900473ffffffffffffffffffffffffffffffffffffffff1673ffffffffffffffffffffffffffffffffffffffff166321df0da76040518163ffffffff1660e01b8152600401602060405180830381600087803b1580156134b857600080fd5b505af19250505080156134e957506040513d601f19601f820116820180604052506134e6919081019061426a565b60015b6134f657600090506134fb565b809150505b801561350657600080fd5b602d60003373ffffffffffffffffffffffffffffffffffffffff1673ffffffffffffffffffffffffffffffffffffffff16815260200190815260200160002060006005815260200190815260200160002060009054906101000a900460ff16613664576001602d60003373ffffffffffffffffffffffffffffffffffffffff1673ffffffffffffffffffffffffffffffffffffffff16815260200190815260200160002060006005815260200190815260200160002060006101000a81548160ff021916908315150217905550600160009054906101000a900473ffffffffffffffffffffffffffffffffffffffff1673ffffffffffffffffffffffffffffffffffffffff1663158a49883360016040518363ffffffff1660e01b8152600401613631929190614860565b600060405180830381600087803b15801561364b57600080fd5b505af115801561365f573d6000803e3d6000fd5b505050505b50565b60006020528060005260406000206000915054906101000a900460ff1681565b60306020528060005260406000206000915054906101000a900460ff1681565b60008073ffffffffffffffffffffffffffffffffffffffff16602e60003373ffffffffffffffffffffffffffffffffffffffff1673ffffffffffffffffffffffffffffffffffffffff16815260200190815260200160002060009054906101000a900473ffffffffffffffffffffffffffffffffffffffff1673ffffffffffffffffffffffffffffffffffffffff161415613777576040517f08c379a000000000000000000000000000000000000000000000000000000000815260040161376e90614a1c565b60405180910390fd5b6000602e60003373ffffffffffffffffffffffffffffffffffffffff1673ffffffffffffffffffffffffffffffffffffffff16815260200190815260200160002060009054906101000a900473ffffffffffffffffffffffffffffffffffffffff1673ffffffffffffffffffffffffffffffffffffffff166370a08231306040518263ffffffff1660e01b815260040161381191906147f3565b60206040518083038186803b15801561382957600080fd5b505afa15801561383d573d6000803e3d6000fd5b505050506040513d601f19601f820116820180604052506138619190810190614326565b9050602e60003373ffffffffffffffffffffffffffffffffffffffff1673ffffffffffffffffffffffffffffffffffffffff16815260200190815260200160002060009054906101000a900473ffffffffffffffffffffffffffffffffffffffff1673ffffffffffffffffffffffffffffffffffffffff1663a4821719655af3107a40006040518263ffffffff1660e01b81526004016020604051808303818588803b15801561391057600080fd5b505af1158015613924573d6000803e3d6000fd5b50505050506040513d601f19601f82011682018060405250613949919081019061426a565b50600061398b576040517f08c379a0000000000000000000000000000000000000000000000000000000008152600401613982906149bc565b60405180910390fd5b6000602e60003373ffffffffffffffffffffffffffffffffffffffff1673ffffffffffffffffffffffffffffffffffffffff16815260200190815260200160002060009054906101000a900473ffffffffffffffffffffffffffffffffffffffff1673ffffffffffffffffffffffffffffffffffffffff166370a08231306040518263ffffffff1660e01b8152600401613a2591906147f3565b60206040518083038186803b158015613a3d57600080fd5b505afa158015613a51573d6000803e3d6000fd5b505050506040513d601f19601f82011682018060405250613a759190810190614326565b9050808210613ab9576040517f08c379a0000000000000000000000000000000000000000000000000000000008152600401613ab09061499c565b60405180910390fd5b8181039250602e60003373ffffffffffffffffffffffffffffffffffffffff1673ffffffffffffffffffffffffffffffffffffffff16815260200190815260200160002060009054906101000a900473ffffffffffffffffffffffffffffffffffffffff1673ffffffffffffffffffffffffffffffffffffffff1663a4821719660110d9316ec0006040518263ffffffff1660e01b81526004016020604051808303818588803b158015613b6c57600080fd5b505af1158015613b80573d6000803e3d6000fd5b50505050506040513d601f19601f82011682018060405250613ba5919081019061426a565b506000602e60003373ffffffffffffffffffffffffffffffffffffffff1673ffffffffffffffffffffffffffffffffffffffff16815260200190815260200160002060009054906101000a900473ffffffffffffffffffffffffffffffffffffffff1673ffffffffffffffffffffffffffffffffffffffff166370a08231306040518263ffffffff1660e01b8152600401613c4091906147f3565b60206040518083038186803b158015613c5857600080fd5b505afa158015613c6c573d6000803e3d6000fd5b505050506040513d601f19601f82011682018060405250613c909190810190614326565b9050808210613cd4576040517f08c379a0000000000000000000000000000000000000000000000000000000008152600401613ccb9061499c565b60405180910390fd5b60008282039050848111613d1d576040517f08c379a0000000000000000000000000000000000000000000000000000000008152600401613d14906149fc565b60405180910390fd5b5050505090565b600081604051602001613d3791906147dc565b6040516020818303038152906040528051906020012083604051602001613d5e91906147dc565b6040516020818303038152906040528051906020012014905092915050565b828054600181600116156101000203166002900490600052602060002090601f016020900481019282601f10613db65780548555613df3565b82800160010185558215613df357600052602060002091601f016020900482015b82811115613df2578254825591600101919060010190613dd7565b5b509050613e009190613e97565b5090565b8260148101928215613e33579160200282015b82811115613e32578251825591602001919060010190613e17565b5b509050613e409190613e97565b5090565b8260148101928215613e86579160200282015b82811115613e85578251829080519060200190613e75929190613ebc565b5091602001919060010190613e57565b5b509050613e939190613f3c565b5090565b613eb991905b80821115613eb5576000816000905550600101613e9d565b5090565b90565b828054600181600116156101000203166002900490600052602060002090601f016020900481019282601f10613efd57805160ff1916838001178555613f2b565b82800160010185558215613f2b579182015b82811115613f2a578251825591602001919060010190613f0f565b5b509050613f389190613e97565b5090565b613f6591905b80821115613f615760008181613f589190613f68565b50600101613f42565b5090565b90565b50805460018160011615610100020316600290046000825580601f10613f8e5750613fad565b601f016020900490600052602060002090810190613fac9190613e97565b5b50565b600081359050613fbf81614d0e565b92915050565b600082601f830112613fd657600080fd5b6014613fe9613fe482614ae4565b614ab7565b9150818360005b83811015614020578135860161400688826140dd565b845260208401935060208301925050600181019050613ff0565b5050505092915050565b600082601f83011261403b57600080fd5b601461404e61404982614b06565b614ab7565b9150818385602084028201111561406457600080fd5b60005b83811015614094578161407a8882614185565b845260208401935060208301925050600181019050614067565b5050505092915050565b6000815190506140ad81614d25565b92915050565b6000813590506140c281614d3c565b92915050565b6000813590506140d781614d53565b92915050565b600082601f8301126140ee57600080fd5b81356141016140fc82614b28565b614ab7565b9150808252602083016020830185838301111561411d57600080fd5b614128838284614cbb565b50505092915050565b600082601f83011261414257600080fd5b815161415561415082614b54565b614ab7565b9150808252602083016020830185838301111561417157600080fd5b61417c838284614cca565b50505092915050565b60008135905061419481614d6a565b92915050565b6000815190506141a981614d6a565b92915050565b6000602082840312156141c157600080fd5b60006141cf84828501613fb0565b91505092915050565b600080604083850312156141eb57600080fd5b60006141f985828601613fb0565b925050602061420a85828601614185565b9150509250929050565b6000806102a0838503121561422857600080fd5b60006142368582860161402a565b92505061028083013567ffffffffffffffff81111561425457600080fd5b61426085828601613fc5565b9150509250929050565b60006020828403121561427c57600080fd5b600061428a8482850161409e565b91505092915050565b6000602082840312156142a557600080fd5b60006142b3848285016140b3565b91505092915050565b6000602082840312156142ce57600080fd5b60006142dc848285016140c8565b91505092915050565b6000602082840312156142f757600080fd5b600082015167ffffffffffffffff81111561431157600080fd5b61431d84828501614131565b91505092915050565b60006020828403121561433857600080fd5b60006143468482850161419a565b91505092915050565b61435881614c2b565b82525050565b61436781614bd9565b82525050565b61437681614c3d565b82525050565b61438581614c61565b82525050565b61439481614c73565b82525050565b6143a381614c85565b82525050565b60006143b482614ba0565b6143be8185614bab565b93506143ce818560208601614cca565b6143d781614cfd565b840191505092915050565b60006143ed82614ba0565b6143f78185614bbc565b9350614407818560208601614cca565b80840191505092915050565b600061441e82614b95565b6144288185614bab565b9350614438818560208601614cca565b61444181614cfd565b840191505092915050565b600081546001811660008114614469576001811461448f576144d3565b607f600283041661447a8187614bab565b955060ff1983168652602086019350506144d3565b6002820461449d8187614bab565b95506144a885614b80565b60005b828110156144ca578154818901526001820191506020810190506144ab565b80880195505050505b505092915050565b60006144e8601783614bab565b91507f417070726f7665206e6f7420696d706c656d656e7465640000000000000000006000830152602082019050919050565b6000614528601083614bab565b91507f496e636f7272656374207469636b6572000000000000000000000000000000006000830152602082019050919050565b6000614568601e83614bab565b91507f546f6b656e2062616c616e636520646964206e6f7420696e63726561736500006000830152602082019050919050565b60006145a8600183614bab565b91507f6f000000000000000000000000000000000000000000000000000000000000006000830152602082019050919050565b60006145e8602c83614bab565b91507f42616c616e63654f66206e6f7420696d706c656d656e746564206f7220696e6360008301527f6f72726563746c792073657400000000000000000000000000000000000000006020830152604082019050919050565b600061464e602283614bab565b91507f5365636f6e642062757920616d6f756e74206c6f776572207468616e2066697260008301527f73740000000000000000000000000000000000000000000000000000000000006020830152604082019050919050565b60006146b4601c83614bab565b91507f53747564656e74204552433230206e6f742072656769737465726564000000006000830152602082019050919050565b60006146f4601083614bab565b91507f496e636f727265637420737570706c79000000000000000000000000000000006000830152602082019050919050565b6000614734600283614bab565b91507f6c6c0000000000000000000000000000000000000000000000000000000000006000830152602082019050919050565b6000614774602c83614bab565b91507f416c6c6f77616e6365206e6f7420696d706c656d656e746564206f7220696e6360008301527f6f72726563746c792073657400000000000000000000000000000000000000006020830152604082019050919050565b6147d681614c21565b82525050565b60006147e882846143e2565b915081905092915050565b6000602082019050614808600083018461434f565b92915050565b6000604082019050614823600083018561434f565b614830602083018461434f565b9392505050565b600060408201905061484c600083018561434f565b614859602083018461437c565b9392505050565b6000604082019050614875600083018561434f565b614882602083018461438b565b9392505050565b600060408201905061489e600083018561434f565b6148ab602083018461439a565b9392505050565b60006020820190506148c7600083018461435e565b92915050565b60006020820190506148e2600083018461436d565b92915050565b600060208201905081810360008301526149028184614413565b905092915050565b6000602082019050818103600083015261492481846143a9565b905092915050565b60006040820190508181036000830152614946818561444c565b905061495560208301846147cd565b9392505050565b60006020820190508181036000830152614975816144db565b9050919050565b600060208201905081810360008301526149958161451b565b9050919050565b600060208201905081810360008301526149b58161455b565b9050919050565b600060208201905081810360008301526149d58161459b565b9050919050565b600060208201905081810360008301526149f5816145db565b9050919050565b60006020820190508181036000830152614a1581614641565b9050919050565b60006020820190508181036000830152614a35816146a7565b9050919050565b60006020820190508181036000830152614a55816146e7565b9050919050565b60006020820190508181036000830152614a7581614727565b9050919050565b60006020820190508181036000830152614a9581614767565b9050919050565b6000602082019050614ab160008301846147cd565b92915050565b6000604051905081810181811067ffffffffffffffff82111715614ada57600080fd5b8060405250919050565b600067ffffffffffffffff821115614afb57600080fd5b602082029050919050565b600067ffffffffffffffff821115614b1d57600080fd5b602082029050919050565b600067ffffffffffffffff821115614b3f57600080fd5b601f19601f8301169050602081019050919050565b600067ffffffffffffffff821115614b6b57600080fd5b601f19601f8301169050602081019050919050565b60008190508160005260206000209050919050565b600081519050919050565b600081519050919050565b600082825260208201905092915050565b600081905092915050565b6000614bd282614c01565b9050919050565b60008115159050919050565b6000819050919050565b6000614bfa82614bc7565b9050919050565b600073ffffffffffffffffffffffffffffffffffffffff82169050919050565b6000819050919050565b6000614c3682614c97565b9050919050565b6000614c4882614c4f565b9050919050565b6000614c5a82614c01565b9050919050565b6000614c6c82614c21565b9050919050565b6000614c7e82614c21565b9050919050565b6000614c9082614c21565b9050919050565b6000614ca282614ca9565b9050919050565b6000614cb482614c01565b9050919050565b82818337600083830152505050565b60005b83811015614ce8578082015181840152602081019050614ccd565b83811115614cf7576000848401525b50505050565b6000601f19601f8301169050919050565b614d1781614bc7565b8114614d2257600080fd5b50565b614d2e81614bd9565b8114614d3957600080fd5b50565b614d4581614be5565b8114614d5057600080fd5b50565b614d5c81614bef565b8114614d6757600080fd5b50565b614d7381614c21565b8114614d7e57600080fd5b5056fea26469706673582212204d0a3838db42776d98d32e6a678e97a525b5e16661be97f62a78e5c89de6fc0964736f6c63430006020033",
  "source": "pragma solidity >=0.6.2;\npragma experimental ABIEncoderV2;\n\nimport \"./ERC20TD.sol\";\nimport \"./IExerciceSolution.sol\";\n\n\ncontract Evaluator \n{\n\n\tmapping(address => bool) public teachers;\n\tERC20TD TDERC20;\n\n\tuint256[20] private randomSupplies;\n\tstring[20] private randomTickers;\n \tuint public nextValueStoreRank;\n\n \tmapping(address => string) public assignedTicker;\n \tmapping(address => uint256) public assignedSupply;\n \tmapping(address => mapping(uint256 => bool)) public exerciceProgression;\n \tmapping(address => IExerciceSolution) public studentErc20;\n \tmapping(address => uint256) public ex8Tier1AmountBought;\n \tmapping(address => bool) public hasBeenPaired;\n\n \tevent newRandomTickerAndSupply(string ticker, uint256 supply);\n \tevent constructedCorrectly(address erc20Address);\n\tconstructor(ERC20TD _TDERC20) \n\tpublic \n\t{\n\t\tTDERC20 = _TDERC20;\n\t\temit constructedCorrectly(address(TDERC20));\n\n\t}\n\n\tfallback () external payable \n\t{}\n\n\treceive () external payable \n\t{}\n\n\n\tfunction ex1_getTickerAndSupply()\n\tpublic\n\t{\n\t\tassignedSupply[msg.sender] = randomSupplies[nextValueStoreRank]*1000000000000000000;\n\t\t// assignedTicker[msg.sender] = bytes32ToString(randomTickers[nextValueStoreRank]);\n\t\tassignedTicker[msg.sender] = randomTickers[nextValueStoreRank];\n\n\t\tnextValueStoreRank += 1;\n\t\tif (nextValueStoreRank >= 20)\n\t\t{\n\t\t\tnextValueStoreRank = 0;\n\t\t}\n\n\t\t// Crediting points\n\t\tif (!exerciceProgression[msg.sender][1])\n\t\t{\n\t\t\texerciceProgression[msg.sender][1] = true;\n\t\t\tTDERC20.distributeTokens(msg.sender, 1);\n\t\t}\n\t}\n\n\tfunction ex2_testErc20TickerAndSupply()\n\tpublic\n\t{\n\t\t// Checking ticker and supply were received\n\t\trequire(exerciceProgression[msg.sender][1]);\n\n\t\t// Checking exercice was submitted\n\t\trequire(exerciceProgression[msg.sender][0]);\n\n\t\t// Checking ticker was set properly\n\t\trequire(_compareStrings(assignedTicker[msg.sender], studentErc20[msg.sender].symbol()), \"Incorrect ticker\");\n\t\t// Checking supply was set properly\n\t\trequire(assignedSupply[msg.sender] == studentErc20[msg.sender].totalSupply(), \"Incorrect supply\");\n\t\t// Checking some ERC20 functions were created\n\t\trequire(studentErc20[msg.sender].allowance(address(this), msg.sender) == 0, \"Allowance not implemented or incorrectly set\");\n\t\trequire(studentErc20[msg.sender].balanceOf(address(this)) == 0, \"BalanceOf not implemented or incorrectly set\");\n\t\trequire(studentErc20[msg.sender].approve(msg.sender, 10), \"Approve not implemented\");\n\n\t\t// Crediting points\n\t\tif (!exerciceProgression[msg.sender][2])\n\t\t{\n\t\t\texerciceProgression[msg.sender][2] = true;\n\t\t\t// Creating ERC20\n\t\t\tTDERC20.distributeTokens(msg.sender, 2);\n\t\t}\n\n\t}\n\t\t\n\tfunction ex3_testGetToken()\n\tpublic\n\t{\n\t\t\n\t\t// Checking ERC20 was created\n\t\trequire(address(studentErc20[msg.sender]) != address(0), \"Student ERC20 not registered\");\n\n\t\t// Retrieving initial balance\n\t\tuint256 initialBalance = studentErc20[msg.sender].balanceOf(address(this));\n\n\t\t// Call getToken\n\t\t//require(false, \"ll\");\n\t\tstudentErc20[msg.sender].getToken();\n\n\t\t// Retrieving final balance\n\t\tuint256 finalBalance = studentErc20[msg.sender].balanceOf(address(this));\n\n\t\trequire(initialBalance < finalBalance, \"Token balance did not increase\");\n\n\t\tif (!exerciceProgression[msg.sender][3])\n\t\t{\n\t\t\texerciceProgression[msg.sender][3] = true;\n\t\t\t// Distribute points\n\t\t\tTDERC20.distributeTokens(msg.sender, 2);\n\n\t\t}\n\t}\n\n\tfunction ex4_testBuyToken()\n\tpublic\n\t{\n\n\t\t_testBuyToken();\n\n\t\tif (!exerciceProgression[msg.sender][4])\n\t\t{\n\t\t\texerciceProgression[msg.sender][4] = true;\n\t\t\t// Distribute points\n\t\t\tTDERC20.distributeTokens(msg.sender, 2);\n\t\t}\n\t}\n\n\tfunction ex5_testDenyListing()\n\tpublic\n\t{\n\t\t// Checking ERC20 was created\n\t\trequire(address(studentErc20[msg.sender]) != address(0), \"Student ERC20 not registered\");\n\n\t\trequire(!studentErc20[msg.sender].isCustomerWhiteListed(address(this)));\n\n\t\tbool wasBuyAccepted = true;\n\t\ttry studentErc20[msg.sender].getToken() returns (bool v) \n\t\t{\n\t\t\twasBuyAccepted = v;\n        } \n        catch \n        {\n            // This is executed in case revert() was used.\n            wasBuyAccepted = false;\n        }\n\n        require(!wasBuyAccepted);\n\n        if (!exerciceProgression[msg.sender][5])\n\t\t{\n\t\t\texerciceProgression[msg.sender][5] = true;\n\t\t\t// Distribute points\n\t\t\tTDERC20.distributeTokens(msg.sender, 1);\n\t\t}\n\t}\n\n\tfunction ex6_testAllowListing()\n\tpublic\n\t{\n\t\t// Checking ERC20 was created\n\t\trequire(address(studentErc20[msg.sender]) != address(0), \"Student ERC20 not registered\");\n\t\t// Checking ex5 was done\n\t\trequire(exerciceProgression[msg.sender][5]);\n\n\t\t// Check if the current contract is whitelisted\n\t\trequire(studentErc20[msg.sender].isCustomerWhiteListed(address(this)));\n\n\t\t// Trying to buy\n\t\tex3_testGetToken();\n\n        if (!exerciceProgression[msg.sender][6])\n\t\t{\n\t\t\texerciceProgression[msg.sender][6] = true;\n\t\t\t// Distribute points\n\t\t\tTDERC20.distributeTokens(msg.sender, 2);\n\t\t}\n\t}\n\n\tfunction ex7_testDenyListing()\n\tpublic\n\t{\n\t\t// Checking ERC20 was created\n\t\trequire(address(studentErc20[msg.sender]) != address(0), \"Student ERC20 not registered\");\n\n\t\trequire(!studentErc20[msg.sender].isCustomerWhiteListed(address(this)));\n\n\t\trequire(studentErc20[msg.sender].customerTierLevel(address(this)) == 0);\n\n\t\tbool wasBuyAccepted = true;\n\t\ttry studentErc20[msg.sender].buyToken.value(0.0001 ether)() returns (bool v) \n\t\t{\n\t\t\twasBuyAccepted = v;\n        } \n        catch \n        {\n            // This is executed in case revert() was used.\n            wasBuyAccepted = false;\n        }\n\n        require(!wasBuyAccepted);\n\n        if (!exerciceProgression[msg.sender][7])\n\t\t{\n\t\t\texerciceProgression[msg.sender][7] = true;\n\t\t\t// Distribute points\n\t\t\tTDERC20.distributeTokens(msg.sender, 1);\n\t\t}\n\t}\n\n\tfunction ex8_testTier1Listing()\n\tpublic\n\t{\n\t\t// Checking ERC20 was created\n\t\trequire(address(studentErc20[msg.sender]) != address(0), \"Student ERC20 not registered\");\n\t\t// Checking ex7 was done\n\t\trequire(exerciceProgression[msg.sender][7]);\n\n\t\t// Check if the current contract is whitelisted\n\t\trequire(studentErc20[msg.sender].isCustomerWhiteListed(address(this)));\n\n\t\t// Check if the current contract has the correct tier level\n\t\trequire(studentErc20[msg.sender].customerTierLevel(address(this)) == 1);\n\n\t\t// Trying to buy\n\t\tex8Tier1AmountBought[msg.sender] = _testBuyToken();\n\n        if (!exerciceProgression[msg.sender][8])\n\t\t{\n\t\t\texerciceProgression[msg.sender][8] = true;\n\t\t\t// Distribute points\n\t\t\tTDERC20.distributeTokens(msg.sender, 2);\n\t\t}\n\t}\n\n\tfunction ex9_testTier2Listing()\n\tpublic\n\t{\n\t\t// Checking ERC20 was created\n\t\trequire(address(studentErc20[msg.sender]) != address(0), \"Student ERC20 not registered\");\n\t\t// Checking ex7 was done\n\t\trequire(exerciceProgression[msg.sender][7]);\n\n\t\t// Check if the current contract is whitelisted\n\t\trequire(studentErc20[msg.sender].isCustomerWhiteListed(address(this)));\n\n\t\t// Check if the current contract has the correct tier level\n\t\trequire(studentErc20[msg.sender].customerTierLevel(address(this)) == 2);\n\n\t\t// Trying to buy\n\t\tuint256 tier2AmountBought = _testBuyToken();\n\n\t\t// Checking that bought amount is twice what was bought before, for the same price\n\t\trequire(tier2AmountBought == 2 * ex8Tier1AmountBought[msg.sender]);\n\n\n        if (!exerciceProgression[msg.sender][9])\n\t\t{\n\t\t\texerciceProgression[msg.sender][9] = true;\n\t\t\t// Distribute points\n\t\t\tTDERC20.distributeTokens(msg.sender, 2);\n\t\t}\n\t}\n\n\n\t/* Internal functions and modifiers */ \n\n\n\tmodifier onlyTeachers() \n\t{\n\n\t    require(TDERC20.teachers(msg.sender));\n\t    _;\n\t}\n\n\tfunction submitExercice(IExerciceSolution studentExercice)\n\tpublic\n\t{\n\t\trequire(true, \"ll\");\n\t\t// Checking this contract was not used by another group before\n\t\trequire(!hasBeenPaired[address(studentExercice)]);\n\n\t\t// Assigning passed ERC20 as student ERC20\n\t\tstudentErc20[msg.sender] = studentExercice;\n\t\thasBeenPaired[address(studentExercice)] = true;\n\t\tif (!exerciceProgression[msg.sender][0])\n\t\t{\n\t\t\texerciceProgression[msg.sender][0] = true;\n\t\t\t// Setup points\n\t\t\tTDERC20.distributeTokens(msg.sender, 2);\n\t\t\t// Creating contract points\n\t\t\tTDERC20.distributeTokens(msg.sender, 2);\n\t\t\t// Deploying contract points\n\t\t\tTDERC20.distributeTokens(msg.sender, 1);\n\t\t}\n\t\t\t\n\t}\n\n\tfunction _compareStrings(string memory a, string memory b) \n\tinternal \n\tpure \n\treturns (bool) \n\t{\n    \treturn (keccak256(abi.encodePacked((a))) == keccak256(abi.encodePacked((b))));\n\t}\n\n\tfunction bytes32ToString(bytes32 _bytes32) \n\tpublic \n\tpure returns (string memory) \n\t{\n        uint8 i = 0;\n        while(i < 32 && _bytes32[i] != 0) {\n            i++;\n        }\n        bytes memory bytesArray = new bytes(i);\n        for (i = 0; i < 32 && _bytes32[i] != 0; i++) {\n            bytesArray[i] = _bytes32[i];\n        }\n        return string(bytesArray);\n    }\n\n\tfunction _testBuyToken()\n\tinternal\n\treturns(uint256 firstBuyAmount)\n\t{\n\t\t// Checking ERC20 was created\n\t\trequire(address(studentErc20[msg.sender]) != address(0), \"Student ERC20 not registered\");\n\n\t\t// Retrieving initial balance\n\t\t\n\t\tuint256 initialBalance = studentErc20[msg.sender].balanceOf(address(this));\n\n\t\t// Call buyToken\n\t\tstudentErc20[msg.sender].buyToken.value(0.0001 ether)();\n\t\trequire(false, \"o\");\n\t\t// Retrieving intermediate balance\n\t\tuint256 intermediateBalance = studentErc20[msg.sender].balanceOf(address(this));\n\t\trequire(initialBalance < intermediateBalance, \"Token balance did not increase\");\n\n\t\tfirstBuyAmount = intermediateBalance - initialBalance;\n\n\t\t// Call buyToken again\n\t\tstudentErc20[msg.sender].buyToken.value(0.0003 ether)();\n\n\t\t// Retrieving final balance\n\t\tuint256 finalBalance = studentErc20[msg.sender].balanceOf(address(this));\n\n\t\trequire(intermediateBalance < finalBalance, \"Token balance did not increase\");\n\n\t\tuint256 secondBuyAmount = finalBalance - intermediateBalance;\n\n\t\t// Check that second buy amount was a different amount that first buy amount\n\n\t\trequire(secondBuyAmount > firstBuyAmount, \"Second buy amount lower than first\");\n\t}\n\n\tfunction readTicker(address studentAddres)\n\tpublic\n\tview\n\treturns(string memory)\n\t{\n\t\treturn assignedTicker[studentAddres];\n\t}\n\n\tfunction readSupply(address studentAddres)\n\tpublic\n\tview\n\treturns(uint256)\n\t{\n\t\treturn assignedSupply[studentAddres];\n\t}\n\n\tfunction setRandomTickersAndSupply(uint256[20] memory _randomSupplies, string[20] memory _randomTickers) \n\tpublic \n\tonlyTeachers\n\t{\n\t\trandomSupplies = _randomSupplies;\n\t\trandomTickers = _randomTickers;\n\t\tnextValueStoreRank = 0;\n\t\tfor (uint i = 0; i < 20; i++)\n\t\t{\n\t\t\temit newRandomTickerAndSupply(randomTickers[i], randomSupplies[i]);\n\t\t}\n\t}\n\n\n\n\n}\n",
  "sourcePath": "/home/user/Bureau/Blockchain/erc20-101/contracts/Evaluator.sol",
  "compiler": {
    "name": "solc",
    "version": "0.6.2+commit.bacdbe57.Emscripten.clang"
  },
  "schemaVersion": "3.4.3",
  "updatedAt": "2021-11-23T17:58:25.851Z",
  "devdoc": {
    "methods": {}
  },
  "userdoc": {
    "methods": {}
  }
}